{
	"data": {
		"bytecode": {
			"linkReferences": {},
			"object": "6080604052736e06ebb39fdf15539d06227b51c96a31d4a249b4600c60006101000a81548173ffffffffffffffffffffffffffffffffffffffff021916908373ffffffffffffffffffffffffffffffffffffffff16021790555060405180602001604052806000815250600d90805190602001906200008092919062001561565b503480156200008e57600080fd5b506040516200439f3803806200439f83398181016040526080811015620000b457600080fd5b8101908080519060200190929190805190602001909291908051906020019092919080516040519392919084640100000000821115620000f357600080fd5b838201915060208201858111156200010a57600080fd5b82518660018202830111640100000000821117156200012857600080fd5b8083526020830192505050908051906020019080838360005b838110156200015e57808201518184015260208101905062000141565b50505050905090810190601f1680156200018c5780820380516001836020036101000a031916815260200191505b50604052505050836000806101000a81548160ff021916908360ff1602179055506000620001c66064620005a760201b62001cb01760201c565b90506000620001e38660ff16620005a760201b62001cb01760201c565b90506200023f60016200022e600a6200021d856200020c87620005cb60201b62001cd31760201c565b6200060e60201b62001d0d1760201c565b6200060e60201b62001d0d1760201c565b6200067b60201b62001d781760201c565b600360106101000a8154816fffffffffffffffffffffffffffffffff0219169083600f0b6fffffffffffffffffffffffffffffffff160217905550620002b66200029583836200060e60201b62001d0d1760201c565b600360109054906101000a9004600f0b6200060e60201b62001d0d1760201c565b600360006101000a8154816fffffffffffffffffffffffffffffffff0219169083600f0b6fffffffffffffffffffffffffffffffff1602179055506000806200032f6200031e85600360009054906101000a9004600f0b6200067b60201b62001d781760201c565b6200070260201b62001dfb1760201c565b905033600960006101000a81548173ffffffffffffffffffffffffffffffffffffffff021916908373ffffffffffffffffffffffffffffffffffffffff1602179055506000600190505b600160008054906101000a900460ff160160ff168160ff161015620004735784600160008360ff1660ff16815260200190815260200160002060006101000a8154816fffffffffffffffffffffffffffffffff0219169083600f0b6fffffffffffffffffffffffffffffffff1602179055506200040283836200078660201b62001e741760201c565b92506200042a600460109054906101000a9004600f0b866200078660201b62001e741760201c565b600460106101000a8154816fffffffffffffffffffffffffffffffff0219169083600f0b6fffffffffffffffffffffffffffffffff160217905550808060010191505062000379565b50620004af600360009054906101000a9004600f0b6200049e84620005cb60201b62001cd31760201c565b6200060e60201b62001d0d1760201c565b600460006101000a8154816fffffffffffffffffffffffffffffffff0219169083600f0b6fffffffffffffffffffffffffffffffff160217905550866006819055508560078190555060007f61606860eb6c87306811e2695215385101daab53bd6ab4e9f9049aead9363c7d866040518080602001828103825283818151815260200191508051906020019080838360005b838110156200055e57808201518184015260208101905062000541565b50505050905090810190601f1680156200058c5780820380516001836020036101000a031916815260200191505b509250505060405180910390a2505050505050505062001617565b6000677fffffffffffffff821115620005bf57600080fd5b604082901b9050919050565b60008082600f0b13620005dd57600080fd5b60806fb17217f7d1cf79abc9e3b39803f2f6af6200060184620007ef60201b60201c565b600f0b02901c9050919050565b600080604083600f0b85600f0b02901d90507fffffffffffffffffffffffffffffffff80000000000000000000000000000000600f0b81121580156200066757506f7fffffffffffffffffffffffffffffff600f0b8113155b6200067157600080fd5b8091505092915050565b60008082600f0b14156200068e57600080fd5b600082600f0b604085600f0b901b81620006a457fe5b0590507fffffffffffffffffffffffffffffffff80000000000000000000000000000000600f0b8112158015620006ee57506f7fffffffffffffffffffffffffffffff600f0b8113155b620006f857600080fd5b8091505092915050565b60006840000000000000000082600f0b126200071d57600080fd5b7fffffffffffffffffffffffffffffffffffffffffffffffc0000000000000000082600f0b121562000753576000905062000781565b6200077e6080700171547652b82fe1777d0ffda0d23a7d1284600f0b02901d6200091d60201b60201c565b90505b919050565b60008082600f0b84600f0b0190507fffffffffffffffffffffffffffffffff80000000000000000000000000000000600f0b8112158015620007db57506f7fffffffffffffffffffffffffffffff600f0b8113155b620007e557600080fd5b8091505092915050565b60008082600f0b136200080157600080fd5b60008083600f0b90506801000000000000000081126200082957604081901d90506040820191505b64010000000081126200084457602081901d90506020820191505b6201000081126200085d57601081901d90506010820191505b61010081126200087557600881901d90506008820191505b601081126200088c57600481901d90506004820191505b60048112620008a357600281901d90506002820191505b60028112620008b3576001820191505b60006040808403901b9050600083607f0386600f0b901b9050600067800000000000000090505b600081131562000910578182029150600060ff83901c905080607f0183901c92508082028401935050600181901d9050620008da565b5081945050505050919050565b60006840000000000000000082600f0b126200093857600080fd5b7fffffffffffffffffffffffffffffffffffffffffffffffc0000000000000000082600f0b12156200096e57600090506200155c565b60006f80000000000000000000000000000000905060006780000000000000008416600f0b1315620009b557608070016a09e667f3bcc908b2fb1366ea957d3e8202901c90505b60006740000000000000008416600f0b1315620009e75760807001306fe0a31b7152de8d5a46305c85edec8202901c90505b60006720000000000000008416600f0b131562000a195760807001172b83c7d517adcdf7c8c50eb14a791f8202901c90505b60006710000000000000008416600f0b131562000a4b57608070010b5586cf9890f6298b92b71842a983638202901c90505b60006708000000000000008416600f0b131562000a7d5760807001059b0d31585743ae7c548eb68ca417fd8202901c90505b60006704000000000000008416600f0b131562000aaf576080700102c9a3e778060ee6f7caca4f7a29bde88202901c90505b60006702000000000000008416600f0b131562000ae157608070010163da9fb33356d84a66ae336dcdfa3f8202901c90505b60006701000000000000008416600f0b131562000b13576080700100b1afa5abcbed6129ab13ec11dc95438202901c90505b600066800000000000008416600f0b131562000b4457608070010058c86da1c09ea1ff19d294cf2f679b8202901c90505b600066400000000000008416600f0b131562000b755760807001002c605e2e8cec506d21bfc89a23a00f8202901c90505b600066200000000000008416600f0b131562000ba6576080700100162f3904051fa128bca9c55c31e5df8202901c90505b600066100000000000008416600f0b131562000bd75760807001000b175effdc76ba38e31671ca9397258202901c90505b600066080000000000008416600f0b131562000c08576080700100058ba01fb9f96d6cacd4b180917c3d8202901c90505b600066040000000000008416600f0b131562000c3957608070010002c5cc37da9491d0985c348c68e7b38202901c90505b600066020000000000008416600f0b131562000c6a5760807001000162e525ee054754457d59952920268202901c90505b600066010000000000008416600f0b131562000c9b57608070010000b17255775c040618bf4a4ade83fc8202901c90505b6000658000000000008416600f0b131562000ccb5760807001000058b91b5bc9ae2eed81e9b7d4cfab8202901c90505b6000654000000000008416600f0b131562000cfb576080700100002c5c89d5ec6ca4d7c8acc017b7c98202901c90505b6000652000000000008416600f0b131562000d2b57608070010000162e43f4f831060e02d839a9d16d8202901c90505b6000651000000000008416600f0b131562000d5b576080700100000b1721bcfc99d9f890ea069117638202901c90505b6000650800000000008416600f0b131562000d8b57608070010000058b90cf1e6d97f9ca14dbcc16288202901c90505b6000650400000000008416600f0b131562000dbb5760807001000002c5c863b73f016468f6bac5ca2b8202901c90505b6000650200000000008416600f0b131562000deb576080700100000162e430e5a18f6119e3c02282a58202901c90505b6000650100000000008416600f0b131562000e1b5760807001000000b1721835514b86e6d96efd1bfe8202901c90505b60006480000000008416600f0b131562000e4a576080700100000058b90c0b48c6be5df846c5b2ef8202901c90505b60006440000000008416600f0b131562000e7957608070010000002c5c8601cc6b9e94213c72737a8202901c90505b60006420000000008416600f0b131562000ea85760807001000000162e42fff037df38aa2b219f068202901c90505b60006410000000008416600f0b131562000ed757608070010000000b17217fba9c739aa5819f44f98202901c90505b60006408000000008416600f0b131562000f065760807001000000058b90bfcdee5acd3c1cedc8238202901c90505b60006404000000008416600f0b131562000f35576080700100000002c5c85fe31f35a6a30da1be508202901c90505b60006402000000008416600f0b131562000f6457608070010000000162e42ff0999ce3541b9fffcf8202901c90505b60006401000000008416600f0b131562000f93576080700100000000b17217f80f4ef5aadda455548202901c90505b600063800000008416600f0b131562000fc157608070010000000058b90bfbf8479bd5a81b51ad8202901c90505b600063400000008416600f0b131562000fef5760807001000000002c5c85fdf84bd62ae30a74cc8202901c90505b600063200000008416600f0b13156200101d576080700100000000162e42fefb2fed257559bdaa8202901c90505b600063100000008416600f0b13156200104b5760807001000000000b17217f7d5a7716bba4a9ae8202901c90505b600063080000008416600f0b131562001079576080700100000000058b90bfbe9ddbac5e109cce8202901c90505b600063040000008416600f0b1315620010a757608070010000000002c5c85fdf4b15de6f17eb0d8202901c90505b600063020000008416600f0b1315620010d55760807001000000000162e42fefa494f1478fde058202901c90505b600063010000008416600f0b13156200110357608070010000000000b17217f7d20cf927c8e94c8202901c90505b6000628000008416600f0b1315620011305760807001000000000058b90bfbe8f71cb4e4b33d8202901c90505b6000624000008416600f0b13156200115d576080700100000000002c5c85fdf477b662b269458202901c90505b6000622000008416600f0b13156200118a57608070010000000000162e42fefa3ae53369388c8202901c90505b6000621000008416600f0b1315620011b7576080700100000000000b17217f7d1d351a389d408202901c90505b6000620800008416600f0b1315620011e457608070010000000000058b90bfbe8e8b2d3d4ede8202901c90505b6000620400008416600f0b1315620012115760807001000000000002c5c85fdf4741bea6e77e8202901c90505b6000620200008416600f0b13156200123e576080700100000000000162e42fefa39fe95583c28202901c90505b6000620100008416600f0b13156200126b5760807001000000000000b17217f7d1cfb72b45e18202901c90505b60006180008416600f0b131562001297576080700100000000000058b90bfbe8e7cc35c3f08202901c90505b60006140008416600f0b1315620012c357608070010000000000002c5c85fdf473e242ea388202901c90505b60006120008416600f0b1315620012ef5760807001000000000000162e42fefa39f02b772c8202901c90505b60006110008416600f0b13156200131b57608070010000000000000b17217f7d1cf7d83c1a8202901c90505b60006108008416600f0b1315620013475760807001000000000000058b90bfbe8e7bdcbe2e8202901c90505b60006104008416600f0b131562001373576080700100000000000002c5c85fdf473dea871f8202901c90505b60006102008416600f0b13156200139f57608070010000000000000162e42fefa39ef44d918202901c90505b60006101008416600f0b1315620013cb576080700100000000000000b17217f7d1cf79e9498202901c90505b600060808416600f0b1315620013f657608070010000000000000058b90bfbe8e7bce5448202901c90505b600060408416600f0b1315620014215760807001000000000000002c5c85fdf473de6eca8202901c90505b600060208416600f0b13156200144c576080700100000000000000162e42fefa39ef366f8202901c90505b600060108416600f0b1315620014775760807001000000000000000b17217f7d1cf79afa8202901c90505b600060088416600f0b1315620014a2576080700100000000000000058b90bfbe8e7bcd6d8202901c90505b600060048416600f0b1315620014cd57608070010000000000000002c5c85fdf473de6b28202901c90505b600060028416600f0b1315620014f85760807001000000000000000162e42fefa39ef3588202901c90505b600060018416600f0b13156200152357608070010000000000000000b17217f7d1cf79ab8202901c90505b604083600f0b901d603f03600f0b81901c90506f7fffffffffffffffffffffffffffffff600f0b8111156200155757600080fd5b809150505b919050565b828054600181600116156101000203166002900490600052602060002090601f016020900481019282620015995760008555620015e5565b82601f10620015b457805160ff1916838001178555620015e5565b82800160010185558215620015e5579182015b82811115620015e4578251825591602001919060010190620015c7565b5b509050620015f49190620015f8565b5090565b5b8082111562001613576000816000905550600101620015f9565b5090565b612d7880620016276000396000f3fe60806040526004361061011f5760003560e01c8063653b599b116100a0578063b2d0571111610064578063b2d05711146104f6578063b77641ad14610521578063b88a802f1461052b578063d23890e914610556578063fd8c8219146105a85761011f565b8063653b599b1461037a5780637e7e4b47146103dc5780638bb9e4481461040a578063a85adeab14610469578063adfa9009146104945761011f565b806336ea431e116100e757806336ea431e146102505780633a98ef391461028e5780634ea12b62146102bc5780634f09d6b51461030e5780635a920320146103395761011f565b806313faede6146101245780631444477214610152578063200d2ed214610180578063288b212f146101b6578063311a6c561461020b575b600080fd5b34801561013057600080fd5b5061013961061d565b6040518082600f0b815260200191505060405180910390f35b34801561015e57600080fd5b506101676106cc565b604051808260ff16815260200191505060405180910390f35b34801561018c57600080fd5b506101956106dd565b604051808260048111156101a557fe5b815260200191505060405180910390f35b3480156101c257600080fd5b506101f2600480360360208110156101d957600080fd5b81019080803560ff1690602001909291905050506106f0565b6040518082600f0b815260200191505060405180910390f35b34801561021757600080fd5b5061024e6004803603604081101561022e57600080fd5b810190808035906020019092919080359060200190929190505050610720565b005b34801561025c57600080fd5b5061028c6004803603602081101561027357600080fd5b81019080803560ff169060200190929190505050610994565b005b34801561029a57600080fd5b506102a3610d0e565b6040518082600f0b815260200191505060405180910390f35b3480156102c857600080fd5b506102f5600480360360208110156102df57600080fd5b8101908080359060200190929190505050610d25565b6040518082600f0b815260200191505060405180910390f35b34801561031a57600080fd5b50610323610d37565b6040518082815260200191505060405180910390f35b34801561034557600080fd5b5061034e610d3d565b604051808273ffffffffffffffffffffffffffffffffffffffff16815260200191505060405180910390f35b34801561038657600080fd5b506103c36004803603604081101561039d57600080fd5b81019080803560ff1690602001909291908035600f0b9060200190929190505050610d63565b6040518082600f0b815260200191505060405180910390f35b3480156103e857600080fd5b506103f161130e565b604051808260ff16815260200191505060405180910390f35b34801561041657600080fd5b506104536004803603604081101561042d57600080fd5b81019080803560ff1690602001909291908035600f0b9060200190929190505050611324565b6040518082815260200191505060405180910390f35b34801561047557600080fd5b5061047e611354565b6040518082815260200191505060405180910390f35b3480156104a057600080fd5b506104dd600480360360408110156104b757600080fd5b81019080803560ff1690602001909291908035600f0b906020019092919050505061135a565b6040518082600f0b815260200191505060405180910390f35b34801561050257600080fd5b5061050b611483565b6040518082815260200191505060405180910390f35b610529611489565b005b34801561053757600080fd5b506105406118e8565b6040518082815260200191505060405180910390f35b34801561056257600080fd5b506105926004803603602081101561057957600080fd5b810190808035600f0b9060200190929190505050611c21565b6040518082815260200191505060405180910390f35b3480156105b457600080fd5b50610604600480360360408110156105cb57600080fd5b81019080803560ff169060200190929190803573ffffffffffffffffffffffffffffffffffffffff169060200190929190505050611c42565b6040518082600f0b815260200191505060405180910390f35b6000806000600190505b600160008054906101000a900460ff160160ff168160ff1610156106a4576106958261069061068b600160008660ff1660ff16815260200190815260200160002060009054906101000a9004600f0b600360009054906101000a9004600f0b611d78565b611dfb565b611e74565b91508080600101915050610627565b506106c6600360009054906101000a9004600f0b6106c183611cd3565b611d0d565b91505090565b60008054906101000a900460ff1681565b600c60149054906101000a900460ff1681565b6000600160008360ff1660ff16815260200190815260200160002060009054906101000a9004600f0b9050919050565b600c60009054906101000a900473ffffffffffffffffffffffffffffffffffffffff1673ffffffffffffffffffffffffffffffffffffffff163373ffffffffffffffffffffffffffffffffffffffff16146107e3576040517f08c379a000000000000000000000000000000000000000000000000000000000815260040180806020018281038252600f8152602001807f4a55534520555345204b4c45524f53000000000000000000000000000000000081525060200191505060405180910390fd5b600854821461085a576040517f08c379a000000000000000000000000000000000000000000000000000000000815260040180806020018281038252600d8152602001807f57524f4e4720444953505554450000000000000000000000000000000000000081525060200191505060405180910390fd5b600060019054906101000a900460ff1660ff168160ff16141561087c576108fb565b80600060016101000a81548160ff021916908360ff160217905550600a60009054906101000a900473ffffffffffffffffffffffffffffffffffffffff16600960006101000a81548173ffffffffffffffffffffffffffffffffffffffff021916908373ffffffffffffffffffffffffffffffffffffffff1602179055505b6004600c60146101000a81548160ff0219169083600481111561091a57fe5b021790555081600c60009054906101000a900473ffffffffffffffffffffffffffffffffffffffff1673ffffffffffffffffffffffffffffffffffffffff167f394027a5fa6e098a1191094d1719d6929b9abc535fcc0c8f448d6a4e75622276836040518082815260200191505060405180910390a35050565b600360048111156109a157fe5b600c60149054906101000a900460ff1660048111156109bc57fe5b1415610a30576040517f08c379a00000000000000000000000000000000000000000000000000000000081526004018080602001828103825260178152602001807f4445434953494f4e20474f4e4520544f204b4c45524f5300000000000000000081525060200191505060405180910390fd5b600960009054906101000a900473ffffffffffffffffffffffffffffffffffffffff1673ffffffffffffffffffffffffffffffffffffffff163373ffffffffffffffffffffffffffffffffffffffff1614610af3576040517f08c379a00000000000000000000000000000000000000000000000000000000081526004018080602001828103825260148152602001807f4f4e4c59204d41535445522043414e2043414c4c00000000000000000000000081525060200191505060405180910390fd5b6007544211610b6a576040517f08c379a000000000000000000000000000000000000000000000000000000000815260040180806020018281038252601b8152602001807f544f4f204541524c5920544f20444543494445204f5554434f4d45000000000081525060200191505060405180910390fd5b60006004811115610b7757fe5b600c60149054906101000a900460ff166004811115610b9257fe5b1480610bc3575060016004811115610ba657fe5b600c60149054906101000a900460ff166004811115610bc157fe5b145b610c35576040517f08c379a000000000000000000000000000000000000000000000000000000000815260040180806020018281038252600d8152602001807f494e56414c49442053544154450000000000000000000000000000000000000081525060200191505060405180910390fd5b600160008054906101000a900460ff160160ff168160ff1610610cc0576040517f08c379a00000000000000000000000000000000000000000000000000000000081526004018080602001828103825260118152602001807f494e56414c4944204f5554434f4d45212100000000000000000000000000000081525060200191505060405180910390fd5b80600060016101000a81548160ff021916908360ff1602179055506002600c60146101000a81548160ff02191690836004811115610cfa57fe5b021790555062015180420160058190555050565b6000600460109054906101000a9004600f0b905090565b6000610d3082611cb0565b9050919050565b60055481565b600c60009054906101000a900473ffffffffffffffffffffffffffffffffffffffff1681565b6000806004811115610d7157fe5b600c60149054906101000a900460ff166004811115610d8c57fe5b14610dff576040517f08c379a000000000000000000000000000000000000000000000000000000000815260040180806020018281038252600c8152602001807f4e6f206d6f72652062657473000000000000000000000000000000000000000081525060200191505060405180910390fd5b600160008054906101000a900460ff160160ff168360ff1610610e8a576040517f08c379a000000000000000000000000000000000000000000000000000000000815260040180806020018281038252600e8152602001807f496e76616c6964206f7074696f6e00000000000000000000000000000000000081525060200191505060405180910390fd5b60008360ff1611610f03576040517f08c379a00000000000000000000000000000000000000000000000000000000081526004018080602001828103825260158152602001807f43616e277420626574206f6e206f7074696f6e2030000000000000000000000081525060200191505060405180910390fd5b600460109054906101000a9004600f0b600f0b82600f0b12610f8d576040517f08c379a00000000000000000000000000000000000000000000000000000000081526004018080602001828103825260178152602001807f427579696e6720746f6f206d616e79207368617265732100000000000000000081525060200191505060405180910390fd5b600654421115610fc0576001600c60146101000a81548160ff02191690836004811115610fb657fe5b0217905550611308565b600080610fdc600460109054906101000a9004600f0b85611e74565b600460106101000a8154816fffffffffffffffffffffffffffffffff0219169083600f0b6fffffffffffffffffffffffffffffffff16021790555061103f600460109054906101000a9004600f0b600360109054906101000a9004600f0b611d0d565b600360006101000a8154816fffffffffffffffffffffffffffffffff0219169083600f0b6fffffffffffffffffffffffffffffffff1602179055506110b8600160008060019054906101000a900460ff1660ff1660ff16815260200190815260200160002060009054906101000a9004600f0b85611e74565b600160008760ff1660ff16815260200190815260200160002060006101000a8154816fffffffffffffffffffffffffffffffff0219169083600f0b6fffffffffffffffffffffffffffffffff160217905550611177600260008760ff1660ff16815260200190815260200160002060003373ffffffffffffffffffffffffffffffffffffffff1673ffffffffffffffffffffffffffffffffffffffff16815260200190815260200160002060009054906101000a9004600f0b85611e74565b600260008760ff1660ff16815260200190815260200160002060003373ffffffffffffffffffffffffffffffffffffffff1673ffffffffffffffffffffffffffffffffffffffff16815260200190815260200160002060006101000a8154816fffffffffffffffffffffffffffffffff0219169083600f0b6fffffffffffffffffffffffffffffffff1602179055506000600190505b600160008054906101000a900460ff160160ff168160ff16101561128a5761127b82611276611271600160008660ff1660ff16815260200190815260200160002060009054906101000a9004600f0b600360009054906101000a9004600f0b611d78565b611dfb565b611e74565b9150808060010191505061120d565b506112ac600360009054906101000a9004600f0b6112a783611cd3565b611d0d565b91506112c782600460009054906101000a9004600f0b611edb565b925081600460006101000a8154816fffffffffffffffffffffffffffffffff0219169083600f0b6fffffffffffffffffffffffffffffffff16021790555050505b92915050565b60008060019054906101000a900460ff16905090565b600061134c611343611336858561135a565b61133e61061d565b611edb565b620f4240611f42565b905092915050565b60065481565b600080600061139061137b600460109054906101000a9004600f0b86611e74565b600360109054906101000a9004600f0b611d0d565b90506000600190505b600160008054906101000a900460ff160160ff168160ff161015611466578560ff168160ff161461140c57611405836114006113fb600160008660ff1660ff16815260200190815260200160002060009054906101000a9004600f0b86611d78565b611dfb565b611e74565b9250611459565b6114568361145161144c611446600160008c60ff1660ff16815260200190815260200160002060009054906101000a9004600f0b8a611e74565b86611d78565b611dfb565b611e74565b92505b8080600101915050611399565b506114798161147484611cd3565b611d0d565b9250505092915050565b60075481565b6003600481111561149657fe5b600c60149054906101000a900460ff1660048111156114b157fe5b1415611525576040517f08c379a00000000000000000000000000000000000000000000000000000000081526004018080602001828103825260108152602001807f416c72656164792064697370757465640000000000000000000000000000000081525060200191505060405180910390fd5b6002600481111561153257fe5b600c60149054906101000a900460ff16600481111561154d57fe5b14801561155b575060055442105b8061159d57506001600481111561156e57fe5b600c60149054906101000a900460ff16600481111561158957fe5b14801561159c5750620151806007540142105b5b806115ec5750600060048111156115b057fe5b600c60149054906101000a900460ff1660048111156115cb57fe5b1480156115d9575060065442115b80156115eb5750620151806007540142105b5b61165e576040517f08c379a000000000000000000000000000000000000000000000000000000000815260040180806020018281038252600d8152602001807f43414e275420444953505554450000000000000000000000000000000000000081525060200191505060405180910390fd5b33600a60006101000a81548173ffffffffffffffffffffffffffffffffffffffff021916908373ffffffffffffffffffffffffffffffffffffffff1602179055506003600c60146101000a81548160ff021916908360048111156116be57fe5b02179055506000600c60009054906101000a900473ffffffffffffffffffffffffffffffffffffffff1673ffffffffffffffffffffffffffffffffffffffff1663f7434ea96040518163ffffffff1660e01b8152600401808060200182810382526000815260200160200191505060206040518083038186803b15801561174457600080fd5b505afa158015611758573d6000803e3d6000fd5b505050506040513d602081101561176e57600080fd5b810190808051906020019092919050505090508034101561178e57600080fd5b600c60009054906101000a900473ffffffffffffffffffffffffffffffffffffffff1673ffffffffffffffffffffffffffffffffffffffff1663c13517e18260008054906101000a900460ff166040518363ffffffff1660e01b8152600401808260ff16815260200180602001828103825260008152602001602001925050506020604051808303818588803b15801561182757600080fd5b505af115801561183b573d6000803e3d6000fd5b50505050506040513d602081101561185257600080fd5b8101908080519060200190929190505050600881905550600854600c60009054906101000a900473ffffffffffffffffffffffffffffffffffffffff1673ffffffffffffffffffffffffffffffffffffffff167f74baab670a4015ab2f1b467c5252a96141a2573f2908e58a92081e80d3cfde3d600080604051808381526020018281526020019250505060405180910390a350565b60006007544211611961576040517f08c379a00000000000000000000000000000000000000000000000000000000081526004018080602001828103825260128152602001807f546f6f206561726c7920746f20636c61696d000000000000000000000000000081525060200191505060405180910390fd5b60048081111561196d57fe5b600c60149054906101000a900460ff16600481111561198857fe5b14806119c657506002600481111561199c57fe5b600c60149054906101000a900460ff1660048111156119b757fe5b1480156119c5575060055442115b5b611a38576040517f08c379a00000000000000000000000000000000000000000000000000000000081526004018080602001828103825260138152602001807f57616974696e6720666f722061707065616c730000000000000000000000000081525060200191505060405180910390fd5b6000600260008060019054906101000a900460ff1660ff1660ff16815260200190815260200160002060003373ffffffffffffffffffffffffffffffffffffffff1673ffffffffffffffffffffffffffffffffffffffff16815260200190815260200160002060009054906101000a9004600f0b90506000600160008060019054906101000a900460ff1660ff1660ff16815260200190815260200160002060006101000a8154816fffffffffffffffffffffffffffffffff0219169083600f0b6fffffffffffffffffffffffffffffffff1602179055506000600260008060019054906101000a900460ff1660ff1660ff16815260200190815260200160002060003373ffffffffffffffffffffffffffffffffffffffff1673ffffffffffffffffffffffffffffffffffffffff16815260200190815260200160002060006101000a8154816fffffffffffffffffffffffffffffffff0219169083600f0b6fffffffffffffffffffffffffffffffff160217905550611bc8600460109054906101000a9004600f0b82611edb565b600460106101000a8154816fffffffffffffffffffffffffffffffff0219169083600f0b6fffffffffffffffffffffffffffffffff1602179055506000611c1782670de0b6b3a7640000611f42565b9050809250505090565b6000611c31620f42408302611ffd565b67ffffffffffffffff169050919050565b6000600260008460ff1660ff16815260200190815260200160002060008373ffffffffffffffffffffffffffffffffffffffff1673ffffffffffffffffffffffffffffffffffffffff16815260200190815260200160002060009054906101000a9004600f0b905092915050565b6000677fffffffffffffff821115611cc757600080fd5b604082901b9050919050565b60008082600f0b13611ce457600080fd5b60806fb17217f7d1cf79abc9e3b39803f2f6af611d008461201e565b600f0b02901c9050919050565b600080604083600f0b85600f0b02901d90507fffffffffffffffffffffffffffffffff80000000000000000000000000000000600f0b8112158015611d6557506f7fffffffffffffffffffffffffffffff600f0b8113155b611d6e57600080fd5b8091505092915050565b60008082600f0b1415611d8a57600080fd5b600082600f0b604085600f0b901b81611d9f57fe5b0590507fffffffffffffffffffffffffffffffff80000000000000000000000000000000600f0b8112158015611de857506f7fffffffffffffffffffffffffffffff600f0b8113155b611df157600080fd5b8091505092915050565b60006840000000000000000082600f0b12611e1557600080fd5b7fffffffffffffffffffffffffffffffffffffffffffffffc0000000000000000082600f0b1215611e495760009050611e6f565b611e6c6080700171547652b82fe1777d0ffda0d23a7d1284600f0b02901d612142565b90505b919050565b60008082600f0b84600f0b0190507fffffffffffffffffffffffffffffffff80000000000000000000000000000000600f0b8112158015611ec857506f7fffffffffffffffffffffffffffffff600f0b8113155b611ed157600080fd5b8091505092915050565b60008082600f0b84600f0b0390507fffffffffffffffffffffffffffffffff80000000000000000000000000000000600f0b8112158015611f2f57506f7fffffffffffffffffffffffffffffff600f0b8113155b611f3857600080fd5b8091505092915050565b600080821415611f555760009050611ff7565b600083600f0b1215611f6657600080fd5b600060406fffffffffffffffffffffffffffffffff841685600f0b02901c90506000608084901c85600f0b02905077ffffffffffffffffffffffffffffffffffffffffffffffff811115611fb957600080fd5b604081901b9050817fffffffffffffffffffffffffffffffffffffffffffffffffffffffffffffffff03811115611fef57600080fd5b818101925050505b92915050565b60008082600f0b121561200f57600080fd5b604082600f0b901d9050919050565b60008082600f0b1361202f57600080fd5b60008083600f0b905068010000000000000000811261205657604081901d90506040820191505b640100000000811261207057602081901d90506020820191505b62010000811261208857601081901d90506010820191505b610100811261209f57600881901d90506008820191505b601081126120b557600481901d90506004820191505b600481126120cb57600281901d90506002820191505b600281126120da576001820191505b60006040808403901b9050600083607f0386600f0b901b9050600067800000000000000090505b6000811315612135578182029150600060ff83901c905080607f0183901c92508082028401935050600181901d9050612101565b5081945050505050919050565b60006840000000000000000082600f0b1261215c57600080fd5b7fffffffffffffffffffffffffffffffffffffffffffffffc0000000000000000082600f0b12156121905760009050612d3d565b60006f80000000000000000000000000000000905060006780000000000000008416600f0b13156121d657608070016a09e667f3bcc908b2fb1366ea957d3e8202901c90505b60006740000000000000008416600f0b13156122075760807001306fe0a31b7152de8d5a46305c85edec8202901c90505b60006720000000000000008416600f0b13156122385760807001172b83c7d517adcdf7c8c50eb14a791f8202901c90505b60006710000000000000008416600f0b131561226957608070010b5586cf9890f6298b92b71842a983638202901c90505b60006708000000000000008416600f0b131561229a5760807001059b0d31585743ae7c548eb68ca417fd8202901c90505b60006704000000000000008416600f0b13156122cb576080700102c9a3e778060ee6f7caca4f7a29bde88202901c90505b60006702000000000000008416600f0b13156122fc57608070010163da9fb33356d84a66ae336dcdfa3f8202901c90505b60006701000000000000008416600f0b131561232d576080700100b1afa5abcbed6129ab13ec11dc95438202901c90505b600066800000000000008416600f0b131561235d57608070010058c86da1c09ea1ff19d294cf2f679b8202901c90505b600066400000000000008416600f0b131561238d5760807001002c605e2e8cec506d21bfc89a23a00f8202901c90505b600066200000000000008416600f0b13156123bd576080700100162f3904051fa128bca9c55c31e5df8202901c90505b600066100000000000008416600f0b13156123ed5760807001000b175effdc76ba38e31671ca9397258202901c90505b600066080000000000008416600f0b131561241d576080700100058ba01fb9f96d6cacd4b180917c3d8202901c90505b600066040000000000008416600f0b131561244d57608070010002c5cc37da9491d0985c348c68e7b38202901c90505b600066020000000000008416600f0b131561247d5760807001000162e525ee054754457d59952920268202901c90505b600066010000000000008416600f0b13156124ad57608070010000b17255775c040618bf4a4ade83fc8202901c90505b6000658000000000008416600f0b13156124dc5760807001000058b91b5bc9ae2eed81e9b7d4cfab8202901c90505b6000654000000000008416600f0b131561250b576080700100002c5c89d5ec6ca4d7c8acc017b7c98202901c90505b6000652000000000008416600f0b131561253a57608070010000162e43f4f831060e02d839a9d16d8202901c90505b6000651000000000008416600f0b1315612569576080700100000b1721bcfc99d9f890ea069117638202901c90505b6000650800000000008416600f0b131561259857608070010000058b90cf1e6d97f9ca14dbcc16288202901c90505b6000650400000000008416600f0b13156125c75760807001000002c5c863b73f016468f6bac5ca2b8202901c90505b6000650200000000008416600f0b13156125f6576080700100000162e430e5a18f6119e3c02282a58202901c90505b6000650100000000008416600f0b13156126255760807001000000b1721835514b86e6d96efd1bfe8202901c90505b60006480000000008416600f0b1315612653576080700100000058b90c0b48c6be5df846c5b2ef8202901c90505b60006440000000008416600f0b131561268157608070010000002c5c8601cc6b9e94213c72737a8202901c90505b60006420000000008416600f0b13156126af5760807001000000162e42fff037df38aa2b219f068202901c90505b60006410000000008416600f0b13156126dd57608070010000000b17217fba9c739aa5819f44f98202901c90505b60006408000000008416600f0b131561270b5760807001000000058b90bfcdee5acd3c1cedc8238202901c90505b60006404000000008416600f0b1315612739576080700100000002c5c85fe31f35a6a30da1be508202901c90505b60006402000000008416600f0b131561276757608070010000000162e42ff0999ce3541b9fffcf8202901c90505b60006401000000008416600f0b1315612795576080700100000000b17217f80f4ef5aadda455548202901c90505b600063800000008416600f0b13156127c257608070010000000058b90bfbf8479bd5a81b51ad8202901c90505b600063400000008416600f0b13156127ef5760807001000000002c5c85fdf84bd62ae30a74cc8202901c90505b600063200000008416600f0b131561281c576080700100000000162e42fefb2fed257559bdaa8202901c90505b600063100000008416600f0b13156128495760807001000000000b17217f7d5a7716bba4a9ae8202901c90505b600063080000008416600f0b1315612876576080700100000000058b90bfbe9ddbac5e109cce8202901c90505b600063040000008416600f0b13156128a357608070010000000002c5c85fdf4b15de6f17eb0d8202901c90505b600063020000008416600f0b13156128d05760807001000000000162e42fefa494f1478fde058202901c90505b600063010000008416600f0b13156128fd57608070010000000000b17217f7d20cf927c8e94c8202901c90505b6000628000008416600f0b13156129295760807001000000000058b90bfbe8f71cb4e4b33d8202901c90505b6000624000008416600f0b1315612955576080700100000000002c5c85fdf477b662b269458202901c90505b6000622000008416600f0b131561298157608070010000000000162e42fefa3ae53369388c8202901c90505b6000621000008416600f0b13156129ad576080700100000000000b17217f7d1d351a389d408202901c90505b6000620800008416600f0b13156129d957608070010000000000058b90bfbe8e8b2d3d4ede8202901c90505b6000620400008416600f0b1315612a055760807001000000000002c5c85fdf4741bea6e77e8202901c90505b6000620200008416600f0b1315612a31576080700100000000000162e42fefa39fe95583c28202901c90505b6000620100008416600f0b1315612a5d5760807001000000000000b17217f7d1cfb72b45e18202901c90505b60006180008416600f0b1315612a88576080700100000000000058b90bfbe8e7cc35c3f08202901c90505b60006140008416600f0b1315612ab357608070010000000000002c5c85fdf473e242ea388202901c90505b60006120008416600f0b1315612ade5760807001000000000000162e42fefa39f02b772c8202901c90505b60006110008416600f0b1315612b0957608070010000000000000b17217f7d1cf7d83c1a8202901c90505b60006108008416600f0b1315612b345760807001000000000000058b90bfbe8e7bdcbe2e8202901c90505b60006104008416600f0b1315612b5f576080700100000000000002c5c85fdf473dea871f8202901c90505b60006102008416600f0b1315612b8a57608070010000000000000162e42fefa39ef44d918202901c90505b60006101008416600f0b1315612bb5576080700100000000000000b17217f7d1cf79e9498202901c90505b600060808416600f0b1315612bdf57608070010000000000000058b90bfbe8e7bce5448202901c90505b600060408416600f0b1315612c095760807001000000000000002c5c85fdf473de6eca8202901c90505b600060208416600f0b1315612c33576080700100000000000000162e42fefa39ef366f8202901c90505b600060108416600f0b1315612c5d5760807001000000000000000b17217f7d1cf79afa8202901c90505b600060088416600f0b1315612c87576080700100000000000000058b90bfbe8e7bcd6d8202901c90505b600060048416600f0b1315612cb157608070010000000000000002c5c85fdf473de6b28202901c90505b600060028416600f0b1315612cdb5760807001000000000000000162e42fefa39ef3588202901c90505b600060018416600f0b1315612d0557608070010000000000000000b17217f7d1cf79ab8202901c90505b604083600f0b901d603f03600f0b81901c90506f7fffffffffffffffffffffffffffffff600f0b811115612d3857600080fd5b809150505b91905056fea264697066735822122088ca2c96e17a042501c02c35efa80c437b97654f409e31a76e7bbb2481bda8e764736f6c63430007040033",
			"opcodes": "PUSH1 0x80 PUSH1 0x40 MSTORE PUSH20 0x6E06EBB39FDF15539D06227B51C96A31D4A249B4 PUSH1 0xC PUSH1 0x0 PUSH2 0x100 EXP DUP2 SLOAD DUP2 PUSH20 0xFFFFFFFFFFFFFFFFFFFFFFFFFFFFFFFFFFFFFFFF MUL NOT AND SWAP1 DUP4 PUSH20 0xFFFFFFFFFFFFFFFFFFFFFFFFFFFFFFFFFFFFFFFF AND MUL OR SWAP1 SSTORE POP PUSH1 0x40 MLOAD DUP1 PUSH1 0x20 ADD PUSH1 0x40 MSTORE DUP1 PUSH1 0x0 DUP2 MSTORE POP PUSH1 0xD SWAP1 DUP1 MLOAD SWAP1 PUSH1 0x20 ADD SWAP1 PUSH3 0x80 SWAP3 SWAP2 SWAP1 PUSH3 0x1561 JUMP JUMPDEST POP CALLVALUE DUP1 ISZERO PUSH3 0x8E JUMPI PUSH1 0x0 DUP1 REVERT JUMPDEST POP PUSH1 0x40 MLOAD PUSH3 0x439F CODESIZE SUB DUP1 PUSH3 0x439F DUP4 CODECOPY DUP2 DUP2 ADD PUSH1 0x40 MSTORE PUSH1 0x80 DUP2 LT ISZERO PUSH3 0xB4 JUMPI PUSH1 0x0 DUP1 REVERT JUMPDEST DUP2 ADD SWAP1 DUP1 DUP1 MLOAD SWAP1 PUSH1 0x20 ADD SWAP1 SWAP3 SWAP2 SWAP1 DUP1 MLOAD SWAP1 PUSH1 0x20 ADD SWAP1 SWAP3 SWAP2 SWAP1 DUP1 MLOAD SWAP1 PUSH1 0x20 ADD SWAP1 SWAP3 SWAP2 SWAP1 DUP1 MLOAD PUSH1 0x40 MLOAD SWAP4 SWAP3 SWAP2 SWAP1 DUP5 PUSH5 0x100000000 DUP3 GT ISZERO PUSH3 0xF3 JUMPI PUSH1 0x0 DUP1 REVERT JUMPDEST DUP4 DUP3 ADD SWAP2 POP PUSH1 0x20 DUP3 ADD DUP6 DUP2 GT ISZERO PUSH3 0x10A JUMPI PUSH1 0x0 DUP1 REVERT JUMPDEST DUP3 MLOAD DUP7 PUSH1 0x1 DUP3 MUL DUP4 ADD GT PUSH5 0x100000000 DUP3 GT OR ISZERO PUSH3 0x128 JUMPI PUSH1 0x0 DUP1 REVERT JUMPDEST DUP1 DUP4 MSTORE PUSH1 0x20 DUP4 ADD SWAP3 POP POP POP SWAP1 DUP1 MLOAD SWAP1 PUSH1 0x20 ADD SWAP1 DUP1 DUP4 DUP4 PUSH1 0x0 JUMPDEST DUP4 DUP2 LT ISZERO PUSH3 0x15E JUMPI DUP1 DUP3 ADD MLOAD DUP2 DUP5 ADD MSTORE PUSH1 0x20 DUP2 ADD SWAP1 POP PUSH3 0x141 JUMP JUMPDEST POP POP POP POP SWAP1 POP SWAP1 DUP2 ADD SWAP1 PUSH1 0x1F AND DUP1 ISZERO PUSH3 0x18C JUMPI DUP1 DUP3 SUB DUP1 MLOAD PUSH1 0x1 DUP4 PUSH1 0x20 SUB PUSH2 0x100 EXP SUB NOT AND DUP2 MSTORE PUSH1 0x20 ADD SWAP2 POP JUMPDEST POP PUSH1 0x40 MSTORE POP POP POP DUP4 PUSH1 0x0 DUP1 PUSH2 0x100 EXP DUP2 SLOAD DUP2 PUSH1 0xFF MUL NOT AND SWAP1 DUP4 PUSH1 0xFF AND MUL OR SWAP1 SSTORE POP PUSH1 0x0 PUSH3 0x1C6 PUSH1 0x64 PUSH3 0x5A7 PUSH1 0x20 SHL PUSH3 0x1CB0 OR PUSH1 0x20 SHR JUMP JUMPDEST SWAP1 POP PUSH1 0x0 PUSH3 0x1E3 DUP7 PUSH1 0xFF AND PUSH3 0x5A7 PUSH1 0x20 SHL PUSH3 0x1CB0 OR PUSH1 0x20 SHR JUMP JUMPDEST SWAP1 POP PUSH3 0x23F PUSH1 0x1 PUSH3 0x22E PUSH1 0xA PUSH3 0x21D DUP6 PUSH3 0x20C DUP8 PUSH3 0x5CB PUSH1 0x20 SHL PUSH3 0x1CD3 OR PUSH1 0x20 SHR JUMP JUMPDEST PUSH3 0x60E PUSH1 0x20 SHL PUSH3 0x1D0D OR PUSH1 0x20 SHR JUMP JUMPDEST PUSH3 0x60E PUSH1 0x20 SHL PUSH3 0x1D0D OR PUSH1 0x20 SHR JUMP JUMPDEST PUSH3 0x67B PUSH1 0x20 SHL PUSH3 0x1D78 OR PUSH1 0x20 SHR JUMP JUMPDEST PUSH1 0x3 PUSH1 0x10 PUSH2 0x100 EXP DUP2 SLOAD DUP2 PUSH16 0xFFFFFFFFFFFFFFFFFFFFFFFFFFFFFFFF MUL NOT AND SWAP1 DUP4 PUSH1 0xF SIGNEXTEND PUSH16 0xFFFFFFFFFFFFFFFFFFFFFFFFFFFFFFFF AND MUL OR SWAP1 SSTORE POP PUSH3 0x2B6 PUSH3 0x295 DUP4 DUP4 PUSH3 0x60E PUSH1 0x20 SHL PUSH3 0x1D0D OR PUSH1 0x20 SHR JUMP JUMPDEST PUSH1 0x3 PUSH1 0x10 SWAP1 SLOAD SWAP1 PUSH2 0x100 EXP SWAP1 DIV PUSH1 0xF SIGNEXTEND PUSH3 0x60E PUSH1 0x20 SHL PUSH3 0x1D0D OR PUSH1 0x20 SHR JUMP JUMPDEST PUSH1 0x3 PUSH1 0x0 PUSH2 0x100 EXP DUP2 SLOAD DUP2 PUSH16 0xFFFFFFFFFFFFFFFFFFFFFFFFFFFFFFFF MUL NOT AND SWAP1 DUP4 PUSH1 0xF SIGNEXTEND PUSH16 0xFFFFFFFFFFFFFFFFFFFFFFFFFFFFFFFF AND MUL OR SWAP1 SSTORE POP PUSH1 0x0 DUP1 PUSH3 0x32F PUSH3 0x31E DUP6 PUSH1 0x3 PUSH1 0x0 SWAP1 SLOAD SWAP1 PUSH2 0x100 EXP SWAP1 DIV PUSH1 0xF SIGNEXTEND PUSH3 0x67B PUSH1 0x20 SHL PUSH3 0x1D78 OR PUSH1 0x20 SHR JUMP JUMPDEST PUSH3 0x702 PUSH1 0x20 SHL PUSH3 0x1DFB OR PUSH1 0x20 SHR JUMP JUMPDEST SWAP1 POP CALLER PUSH1 0x9 PUSH1 0x0 PUSH2 0x100 EXP DUP2 SLOAD DUP2 PUSH20 0xFFFFFFFFFFFFFFFFFFFFFFFFFFFFFFFFFFFFFFFF MUL NOT AND SWAP1 DUP4 PUSH20 0xFFFFFFFFFFFFFFFFFFFFFFFFFFFFFFFFFFFFFFFF AND MUL OR SWAP1 SSTORE POP PUSH1 0x0 PUSH1 0x1 SWAP1 POP JUMPDEST PUSH1 0x1 PUSH1 0x0 DUP1 SLOAD SWAP1 PUSH2 0x100 EXP SWAP1 DIV PUSH1 0xFF AND ADD PUSH1 0xFF AND DUP2 PUSH1 0xFF AND LT ISZERO PUSH3 0x473 JUMPI DUP5 PUSH1 0x1 PUSH1 0x0 DUP4 PUSH1 0xFF AND PUSH1 0xFF AND DUP2 MSTORE PUSH1 0x20 ADD SWAP1 DUP2 MSTORE PUSH1 0x20 ADD PUSH1 0x0 KECCAK256 PUSH1 0x0 PUSH2 0x100 EXP DUP2 SLOAD DUP2 PUSH16 0xFFFFFFFFFFFFFFFFFFFFFFFFFFFFFFFF MUL NOT AND SWAP1 DUP4 PUSH1 0xF SIGNEXTEND PUSH16 0xFFFFFFFFFFFFFFFFFFFFFFFFFFFFFFFF AND MUL OR SWAP1 SSTORE POP PUSH3 0x402 DUP4 DUP4 PUSH3 0x786 PUSH1 0x20 SHL PUSH3 0x1E74 OR PUSH1 0x20 SHR JUMP JUMPDEST SWAP3 POP PUSH3 0x42A PUSH1 0x4 PUSH1 0x10 SWAP1 SLOAD SWAP1 PUSH2 0x100 EXP SWAP1 DIV PUSH1 0xF SIGNEXTEND DUP7 PUSH3 0x786 PUSH1 0x20 SHL PUSH3 0x1E74 OR PUSH1 0x20 SHR JUMP JUMPDEST PUSH1 0x4 PUSH1 0x10 PUSH2 0x100 EXP DUP2 SLOAD DUP2 PUSH16 0xFFFFFFFFFFFFFFFFFFFFFFFFFFFFFFFF MUL NOT AND SWAP1 DUP4 PUSH1 0xF SIGNEXTEND PUSH16 0xFFFFFFFFFFFFFFFFFFFFFFFFFFFFFFFF AND MUL OR SWAP1 SSTORE POP DUP1 DUP1 PUSH1 0x1 ADD SWAP2 POP POP PUSH3 0x379 JUMP JUMPDEST POP PUSH3 0x4AF PUSH1 0x3 PUSH1 0x0 SWAP1 SLOAD SWAP1 PUSH2 0x100 EXP SWAP1 DIV PUSH1 0xF SIGNEXTEND PUSH3 0x49E DUP5 PUSH3 0x5CB PUSH1 0x20 SHL PUSH3 0x1CD3 OR PUSH1 0x20 SHR JUMP JUMPDEST PUSH3 0x60E PUSH1 0x20 SHL PUSH3 0x1D0D OR PUSH1 0x20 SHR JUMP JUMPDEST PUSH1 0x4 PUSH1 0x0 PUSH2 0x100 EXP DUP2 SLOAD DUP2 PUSH16 0xFFFFFFFFFFFFFFFFFFFFFFFFFFFFFFFF MUL NOT AND SWAP1 DUP4 PUSH1 0xF SIGNEXTEND PUSH16 0xFFFFFFFFFFFFFFFFFFFFFFFFFFFFFFFF AND MUL OR SWAP1 SSTORE POP DUP7 PUSH1 0x6 DUP2 SWAP1 SSTORE POP DUP6 PUSH1 0x7 DUP2 SWAP1 SSTORE POP PUSH1 0x0 PUSH32 0x61606860EB6C87306811E2695215385101DAAB53BD6AB4E9F9049AEAD9363C7D DUP7 PUSH1 0x40 MLOAD DUP1 DUP1 PUSH1 0x20 ADD DUP3 DUP2 SUB DUP3 MSTORE DUP4 DUP2 DUP2 MLOAD DUP2 MSTORE PUSH1 0x20 ADD SWAP2 POP DUP1 MLOAD SWAP1 PUSH1 0x20 ADD SWAP1 DUP1 DUP4 DUP4 PUSH1 0x0 JUMPDEST DUP4 DUP2 LT ISZERO PUSH3 0x55E JUMPI DUP1 DUP3 ADD MLOAD DUP2 DUP5 ADD MSTORE PUSH1 0x20 DUP2 ADD SWAP1 POP PUSH3 0x541 JUMP JUMPDEST POP POP POP POP SWAP1 POP SWAP1 DUP2 ADD SWAP1 PUSH1 0x1F AND DUP1 ISZERO PUSH3 0x58C JUMPI DUP1 DUP3 SUB DUP1 MLOAD PUSH1 0x1 DUP4 PUSH1 0x20 SUB PUSH2 0x100 EXP SUB NOT AND DUP2 MSTORE PUSH1 0x20 ADD SWAP2 POP JUMPDEST POP SWAP3 POP POP POP PUSH1 0x40 MLOAD DUP1 SWAP2 SUB SWAP1 LOG2 POP POP POP POP POP POP POP POP PUSH3 0x1617 JUMP JUMPDEST PUSH1 0x0 PUSH8 0x7FFFFFFFFFFFFFFF DUP3 GT ISZERO PUSH3 0x5BF JUMPI PUSH1 0x0 DUP1 REVERT JUMPDEST PUSH1 0x40 DUP3 SWAP1 SHL SWAP1 POP SWAP2 SWAP1 POP JUMP JUMPDEST PUSH1 0x0 DUP1 DUP3 PUSH1 0xF SIGNEXTEND SGT PUSH3 0x5DD JUMPI PUSH1 0x0 DUP1 REVERT JUMPDEST PUSH1 0x80 PUSH16 0xB17217F7D1CF79ABC9E3B39803F2F6AF PUSH3 0x601 DUP5 PUSH3 0x7EF PUSH1 0x20 SHL PUSH1 0x20 SHR JUMP JUMPDEST PUSH1 0xF SIGNEXTEND MUL SWAP1 SHR SWAP1 POP SWAP2 SWAP1 POP JUMP JUMPDEST PUSH1 0x0 DUP1 PUSH1 0x40 DUP4 PUSH1 0xF SIGNEXTEND DUP6 PUSH1 0xF SIGNEXTEND MUL SWAP1 SAR SWAP1 POP PUSH32 0xFFFFFFFFFFFFFFFFFFFFFFFFFFFFFFFF80000000000000000000000000000000 PUSH1 0xF SIGNEXTEND DUP2 SLT ISZERO DUP1 ISZERO PUSH3 0x667 JUMPI POP PUSH16 0x7FFFFFFFFFFFFFFFFFFFFFFFFFFFFFFF PUSH1 0xF SIGNEXTEND DUP2 SGT ISZERO JUMPDEST PUSH3 0x671 JUMPI PUSH1 0x0 DUP1 REVERT JUMPDEST DUP1 SWAP2 POP POP SWAP3 SWAP2 POP POP JUMP JUMPDEST PUSH1 0x0 DUP1 DUP3 PUSH1 0xF SIGNEXTEND EQ ISZERO PUSH3 0x68E JUMPI PUSH1 0x0 DUP1 REVERT JUMPDEST PUSH1 0x0 DUP3 PUSH1 0xF SIGNEXTEND PUSH1 0x40 DUP6 PUSH1 0xF SIGNEXTEND SWAP1 SHL DUP2 PUSH3 0x6A4 JUMPI INVALID JUMPDEST SDIV SWAP1 POP PUSH32 0xFFFFFFFFFFFFFFFFFFFFFFFFFFFFFFFF80000000000000000000000000000000 PUSH1 0xF SIGNEXTEND DUP2 SLT ISZERO DUP1 ISZERO PUSH3 0x6EE JUMPI POP PUSH16 0x7FFFFFFFFFFFFFFFFFFFFFFFFFFFFFFF PUSH1 0xF SIGNEXTEND DUP2 SGT ISZERO JUMPDEST PUSH3 0x6F8 JUMPI PUSH1 0x0 DUP1 REVERT JUMPDEST DUP1 SWAP2 POP POP SWAP3 SWAP2 POP POP JUMP JUMPDEST PUSH1 0x0 PUSH9 0x400000000000000000 DUP3 PUSH1 0xF SIGNEXTEND SLT PUSH3 0x71D JUMPI PUSH1 0x0 DUP1 REVERT JUMPDEST PUSH32 0xFFFFFFFFFFFFFFFFFFFFFFFFFFFFFFFFFFFFFFFFFFFFFFC00000000000000000 DUP3 PUSH1 0xF SIGNEXTEND SLT ISZERO PUSH3 0x753 JUMPI PUSH1 0x0 SWAP1 POP PUSH3 0x781 JUMP JUMPDEST PUSH3 0x77E PUSH1 0x80 PUSH17 0x171547652B82FE1777D0FFDA0D23A7D12 DUP5 PUSH1 0xF SIGNEXTEND MUL SWAP1 SAR PUSH3 0x91D PUSH1 0x20 SHL PUSH1 0x20 SHR JUMP JUMPDEST SWAP1 POP JUMPDEST SWAP2 SWAP1 POP JUMP JUMPDEST PUSH1 0x0 DUP1 DUP3 PUSH1 0xF SIGNEXTEND DUP5 PUSH1 0xF SIGNEXTEND ADD SWAP1 POP PUSH32 0xFFFFFFFFFFFFFFFFFFFFFFFFFFFFFFFF80000000000000000000000000000000 PUSH1 0xF SIGNEXTEND DUP2 SLT ISZERO DUP1 ISZERO PUSH3 0x7DB JUMPI POP PUSH16 0x7FFFFFFFFFFFFFFFFFFFFFFFFFFFFFFF PUSH1 0xF SIGNEXTEND DUP2 SGT ISZERO JUMPDEST PUSH3 0x7E5 JUMPI PUSH1 0x0 DUP1 REVERT JUMPDEST DUP1 SWAP2 POP POP SWAP3 SWAP2 POP POP JUMP JUMPDEST PUSH1 0x0 DUP1 DUP3 PUSH1 0xF SIGNEXTEND SGT PUSH3 0x801 JUMPI PUSH1 0x0 DUP1 REVERT JUMPDEST PUSH1 0x0 DUP1 DUP4 PUSH1 0xF SIGNEXTEND SWAP1 POP PUSH9 0x10000000000000000 DUP2 SLT PUSH3 0x829 JUMPI PUSH1 0x40 DUP2 SWAP1 SAR SWAP1 POP PUSH1 0x40 DUP3 ADD SWAP2 POP JUMPDEST PUSH5 0x100000000 DUP2 SLT PUSH3 0x844 JUMPI PUSH1 0x20 DUP2 SWAP1 SAR SWAP1 POP PUSH1 0x20 DUP3 ADD SWAP2 POP JUMPDEST PUSH3 0x10000 DUP2 SLT PUSH3 0x85D JUMPI PUSH1 0x10 DUP2 SWAP1 SAR SWAP1 POP PUSH1 0x10 DUP3 ADD SWAP2 POP JUMPDEST PUSH2 0x100 DUP2 SLT PUSH3 0x875 JUMPI PUSH1 0x8 DUP2 SWAP1 SAR SWAP1 POP PUSH1 0x8 DUP3 ADD SWAP2 POP JUMPDEST PUSH1 0x10 DUP2 SLT PUSH3 0x88C JUMPI PUSH1 0x4 DUP2 SWAP1 SAR SWAP1 POP PUSH1 0x4 DUP3 ADD SWAP2 POP JUMPDEST PUSH1 0x4 DUP2 SLT PUSH3 0x8A3 JUMPI PUSH1 0x2 DUP2 SWAP1 SAR SWAP1 POP PUSH1 0x2 DUP3 ADD SWAP2 POP JUMPDEST PUSH1 0x2 DUP2 SLT PUSH3 0x8B3 JUMPI PUSH1 0x1 DUP3 ADD SWAP2 POP JUMPDEST PUSH1 0x0 PUSH1 0x40 DUP1 DUP5 SUB SWAP1 SHL SWAP1 POP PUSH1 0x0 DUP4 PUSH1 0x7F SUB DUP7 PUSH1 0xF SIGNEXTEND SWAP1 SHL SWAP1 POP PUSH1 0x0 PUSH8 0x8000000000000000 SWAP1 POP JUMPDEST PUSH1 0x0 DUP2 SGT ISZERO PUSH3 0x910 JUMPI DUP2 DUP3 MUL SWAP2 POP PUSH1 0x0 PUSH1 0xFF DUP4 SWAP1 SHR SWAP1 POP DUP1 PUSH1 0x7F ADD DUP4 SWAP1 SHR SWAP3 POP DUP1 DUP3 MUL DUP5 ADD SWAP4 POP POP PUSH1 0x1 DUP2 SWAP1 SAR SWAP1 POP PUSH3 0x8DA JUMP JUMPDEST POP DUP2 SWAP5 POP POP POP POP POP SWAP2 SWAP1 POP JUMP JUMPDEST PUSH1 0x0 PUSH9 0x400000000000000000 DUP3 PUSH1 0xF SIGNEXTEND SLT PUSH3 0x938 JUMPI PUSH1 0x0 DUP1 REVERT JUMPDEST PUSH32 0xFFFFFFFFFFFFFFFFFFFFFFFFFFFFFFFFFFFFFFFFFFFFFFC00000000000000000 DUP3 PUSH1 0xF SIGNEXTEND SLT ISZERO PUSH3 0x96E JUMPI PUSH1 0x0 SWAP1 POP PUSH3 0x155C JUMP JUMPDEST PUSH1 0x0 PUSH16 0x80000000000000000000000000000000 SWAP1 POP PUSH1 0x0 PUSH8 0x8000000000000000 DUP5 AND PUSH1 0xF SIGNEXTEND SGT ISZERO PUSH3 0x9B5 JUMPI PUSH1 0x80 PUSH17 0x16A09E667F3BCC908B2FB1366EA957D3E DUP3 MUL SWAP1 SHR SWAP1 POP JUMPDEST PUSH1 0x0 PUSH8 0x4000000000000000 DUP5 AND PUSH1 0xF SIGNEXTEND SGT ISZERO PUSH3 0x9E7 JUMPI PUSH1 0x80 PUSH17 0x1306FE0A31B7152DE8D5A46305C85EDEC DUP3 MUL SWAP1 SHR SWAP1 POP JUMPDEST PUSH1 0x0 PUSH8 0x2000000000000000 DUP5 AND PUSH1 0xF SIGNEXTEND SGT ISZERO PUSH3 0xA19 JUMPI PUSH1 0x80 PUSH17 0x1172B83C7D517ADCDF7C8C50EB14A791F DUP3 MUL SWAP1 SHR SWAP1 POP JUMPDEST PUSH1 0x0 PUSH8 0x1000000000000000 DUP5 AND PUSH1 0xF SIGNEXTEND SGT ISZERO PUSH3 0xA4B JUMPI PUSH1 0x80 PUSH17 0x10B5586CF9890F6298B92B71842A98363 DUP3 MUL SWAP1 SHR SWAP1 POP JUMPDEST PUSH1 0x0 PUSH8 0x800000000000000 DUP5 AND PUSH1 0xF SIGNEXTEND SGT ISZERO PUSH3 0xA7D JUMPI PUSH1 0x80 PUSH17 0x1059B0D31585743AE7C548EB68CA417FD DUP3 MUL SWAP1 SHR SWAP1 POP JUMPDEST PUSH1 0x0 PUSH8 0x400000000000000 DUP5 AND PUSH1 0xF SIGNEXTEND SGT ISZERO PUSH3 0xAAF JUMPI PUSH1 0x80 PUSH17 0x102C9A3E778060EE6F7CACA4F7A29BDE8 DUP3 MUL SWAP1 SHR SWAP1 POP JUMPDEST PUSH1 0x0 PUSH8 0x200000000000000 DUP5 AND PUSH1 0xF SIGNEXTEND SGT ISZERO PUSH3 0xAE1 JUMPI PUSH1 0x80 PUSH17 0x10163DA9FB33356D84A66AE336DCDFA3F DUP3 MUL SWAP1 SHR SWAP1 POP JUMPDEST PUSH1 0x0 PUSH8 0x100000000000000 DUP5 AND PUSH1 0xF SIGNEXTEND SGT ISZERO PUSH3 0xB13 JUMPI PUSH1 0x80 PUSH17 0x100B1AFA5ABCBED6129AB13EC11DC9543 DUP3 MUL SWAP1 SHR SWAP1 POP JUMPDEST PUSH1 0x0 PUSH7 0x80000000000000 DUP5 AND PUSH1 0xF SIGNEXTEND SGT ISZERO PUSH3 0xB44 JUMPI PUSH1 0x80 PUSH17 0x10058C86DA1C09EA1FF19D294CF2F679B DUP3 MUL SWAP1 SHR SWAP1 POP JUMPDEST PUSH1 0x0 PUSH7 0x40000000000000 DUP5 AND PUSH1 0xF SIGNEXTEND SGT ISZERO PUSH3 0xB75 JUMPI PUSH1 0x80 PUSH17 0x1002C605E2E8CEC506D21BFC89A23A00F DUP3 MUL SWAP1 SHR SWAP1 POP JUMPDEST PUSH1 0x0 PUSH7 0x20000000000000 DUP5 AND PUSH1 0xF SIGNEXTEND SGT ISZERO PUSH3 0xBA6 JUMPI PUSH1 0x80 PUSH17 0x100162F3904051FA128BCA9C55C31E5DF DUP3 MUL SWAP1 SHR SWAP1 POP JUMPDEST PUSH1 0x0 PUSH7 0x10000000000000 DUP5 AND PUSH1 0xF SIGNEXTEND SGT ISZERO PUSH3 0xBD7 JUMPI PUSH1 0x80 PUSH17 0x1000B175EFFDC76BA38E31671CA939725 DUP3 MUL SWAP1 SHR SWAP1 POP JUMPDEST PUSH1 0x0 PUSH7 0x8000000000000 DUP5 AND PUSH1 0xF SIGNEXTEND SGT ISZERO PUSH3 0xC08 JUMPI PUSH1 0x80 PUSH17 0x100058BA01FB9F96D6CACD4B180917C3D DUP3 MUL SWAP1 SHR SWAP1 POP JUMPDEST PUSH1 0x0 PUSH7 0x4000000000000 DUP5 AND PUSH1 0xF SIGNEXTEND SGT ISZERO PUSH3 0xC39 JUMPI PUSH1 0x80 PUSH17 0x10002C5CC37DA9491D0985C348C68E7B3 DUP3 MUL SWAP1 SHR SWAP1 POP JUMPDEST PUSH1 0x0 PUSH7 0x2000000000000 DUP5 AND PUSH1 0xF SIGNEXTEND SGT ISZERO PUSH3 0xC6A JUMPI PUSH1 0x80 PUSH17 0x1000162E525EE054754457D5995292026 DUP3 MUL SWAP1 SHR SWAP1 POP JUMPDEST PUSH1 0x0 PUSH7 0x1000000000000 DUP5 AND PUSH1 0xF SIGNEXTEND SGT ISZERO PUSH3 0xC9B JUMPI PUSH1 0x80 PUSH17 0x10000B17255775C040618BF4A4ADE83FC DUP3 MUL SWAP1 SHR SWAP1 POP JUMPDEST PUSH1 0x0 PUSH6 0x800000000000 DUP5 AND PUSH1 0xF SIGNEXTEND SGT ISZERO PUSH3 0xCCB JUMPI PUSH1 0x80 PUSH17 0x1000058B91B5BC9AE2EED81E9B7D4CFAB DUP3 MUL SWAP1 SHR SWAP1 POP JUMPDEST PUSH1 0x0 PUSH6 0x400000000000 DUP5 AND PUSH1 0xF SIGNEXTEND SGT ISZERO PUSH3 0xCFB JUMPI PUSH1 0x80 PUSH17 0x100002C5C89D5EC6CA4D7C8ACC017B7C9 DUP3 MUL SWAP1 SHR SWAP1 POP JUMPDEST PUSH1 0x0 PUSH6 0x200000000000 DUP5 AND PUSH1 0xF SIGNEXTEND SGT ISZERO PUSH3 0xD2B JUMPI PUSH1 0x80 PUSH17 0x10000162E43F4F831060E02D839A9D16D DUP3 MUL SWAP1 SHR SWAP1 POP JUMPDEST PUSH1 0x0 PUSH6 0x100000000000 DUP5 AND PUSH1 0xF SIGNEXTEND SGT ISZERO PUSH3 0xD5B JUMPI PUSH1 0x80 PUSH17 0x100000B1721BCFC99D9F890EA06911763 DUP3 MUL SWAP1 SHR SWAP1 POP JUMPDEST PUSH1 0x0 PUSH6 0x80000000000 DUP5 AND PUSH1 0xF SIGNEXTEND SGT ISZERO PUSH3 0xD8B JUMPI PUSH1 0x80 PUSH17 0x10000058B90CF1E6D97F9CA14DBCC1628 DUP3 MUL SWAP1 SHR SWAP1 POP JUMPDEST PUSH1 0x0 PUSH6 0x40000000000 DUP5 AND PUSH1 0xF SIGNEXTEND SGT ISZERO PUSH3 0xDBB JUMPI PUSH1 0x80 PUSH17 0x1000002C5C863B73F016468F6BAC5CA2B DUP3 MUL SWAP1 SHR SWAP1 POP JUMPDEST PUSH1 0x0 PUSH6 0x20000000000 DUP5 AND PUSH1 0xF SIGNEXTEND SGT ISZERO PUSH3 0xDEB JUMPI PUSH1 0x80 PUSH17 0x100000162E430E5A18F6119E3C02282A5 DUP3 MUL SWAP1 SHR SWAP1 POP JUMPDEST PUSH1 0x0 PUSH6 0x10000000000 DUP5 AND PUSH1 0xF SIGNEXTEND SGT ISZERO PUSH3 0xE1B JUMPI PUSH1 0x80 PUSH17 0x1000000B1721835514B86E6D96EFD1BFE DUP3 MUL SWAP1 SHR SWAP1 POP JUMPDEST PUSH1 0x0 PUSH5 0x8000000000 DUP5 AND PUSH1 0xF SIGNEXTEND SGT ISZERO PUSH3 0xE4A JUMPI PUSH1 0x80 PUSH17 0x100000058B90C0B48C6BE5DF846C5B2EF DUP3 MUL SWAP1 SHR SWAP1 POP JUMPDEST PUSH1 0x0 PUSH5 0x4000000000 DUP5 AND PUSH1 0xF SIGNEXTEND SGT ISZERO PUSH3 0xE79 JUMPI PUSH1 0x80 PUSH17 0x10000002C5C8601CC6B9E94213C72737A DUP3 MUL SWAP1 SHR SWAP1 POP JUMPDEST PUSH1 0x0 PUSH5 0x2000000000 DUP5 AND PUSH1 0xF SIGNEXTEND SGT ISZERO PUSH3 0xEA8 JUMPI PUSH1 0x80 PUSH17 0x1000000162E42FFF037DF38AA2B219F06 DUP3 MUL SWAP1 SHR SWAP1 POP JUMPDEST PUSH1 0x0 PUSH5 0x1000000000 DUP5 AND PUSH1 0xF SIGNEXTEND SGT ISZERO PUSH3 0xED7 JUMPI PUSH1 0x80 PUSH17 0x10000000B17217FBA9C739AA5819F44F9 DUP3 MUL SWAP1 SHR SWAP1 POP JUMPDEST PUSH1 0x0 PUSH5 0x800000000 DUP5 AND PUSH1 0xF SIGNEXTEND SGT ISZERO PUSH3 0xF06 JUMPI PUSH1 0x80 PUSH17 0x1000000058B90BFCDEE5ACD3C1CEDC823 DUP3 MUL SWAP1 SHR SWAP1 POP JUMPDEST PUSH1 0x0 PUSH5 0x400000000 DUP5 AND PUSH1 0xF SIGNEXTEND SGT ISZERO PUSH3 0xF35 JUMPI PUSH1 0x80 PUSH17 0x100000002C5C85FE31F35A6A30DA1BE50 DUP3 MUL SWAP1 SHR SWAP1 POP JUMPDEST PUSH1 0x0 PUSH5 0x200000000 DUP5 AND PUSH1 0xF SIGNEXTEND SGT ISZERO PUSH3 0xF64 JUMPI PUSH1 0x80 PUSH17 0x10000000162E42FF0999CE3541B9FFFCF DUP3 MUL SWAP1 SHR SWAP1 POP JUMPDEST PUSH1 0x0 PUSH5 0x100000000 DUP5 AND PUSH1 0xF SIGNEXTEND SGT ISZERO PUSH3 0xF93 JUMPI PUSH1 0x80 PUSH17 0x100000000B17217F80F4EF5AADDA45554 DUP3 MUL SWAP1 SHR SWAP1 POP JUMPDEST PUSH1 0x0 PUSH4 0x80000000 DUP5 AND PUSH1 0xF SIGNEXTEND SGT ISZERO PUSH3 0xFC1 JUMPI PUSH1 0x80 PUSH17 0x10000000058B90BFBF8479BD5A81B51AD DUP3 MUL SWAP1 SHR SWAP1 POP JUMPDEST PUSH1 0x0 PUSH4 0x40000000 DUP5 AND PUSH1 0xF SIGNEXTEND SGT ISZERO PUSH3 0xFEF JUMPI PUSH1 0x80 PUSH17 0x1000000002C5C85FDF84BD62AE30A74CC DUP3 MUL SWAP1 SHR SWAP1 POP JUMPDEST PUSH1 0x0 PUSH4 0x20000000 DUP5 AND PUSH1 0xF SIGNEXTEND SGT ISZERO PUSH3 0x101D JUMPI PUSH1 0x80 PUSH17 0x100000000162E42FEFB2FED257559BDAA DUP3 MUL SWAP1 SHR SWAP1 POP JUMPDEST PUSH1 0x0 PUSH4 0x10000000 DUP5 AND PUSH1 0xF SIGNEXTEND SGT ISZERO PUSH3 0x104B JUMPI PUSH1 0x80 PUSH17 0x1000000000B17217F7D5A7716BBA4A9AE DUP3 MUL SWAP1 SHR SWAP1 POP JUMPDEST PUSH1 0x0 PUSH4 0x8000000 DUP5 AND PUSH1 0xF SIGNEXTEND SGT ISZERO PUSH3 0x1079 JUMPI PUSH1 0x80 PUSH17 0x100000000058B90BFBE9DDBAC5E109CCE DUP3 MUL SWAP1 SHR SWAP1 POP JUMPDEST PUSH1 0x0 PUSH4 0x4000000 DUP5 AND PUSH1 0xF SIGNEXTEND SGT ISZERO PUSH3 0x10A7 JUMPI PUSH1 0x80 PUSH17 0x10000000002C5C85FDF4B15DE6F17EB0D DUP3 MUL SWAP1 SHR SWAP1 POP JUMPDEST PUSH1 0x0 PUSH4 0x2000000 DUP5 AND PUSH1 0xF SIGNEXTEND SGT ISZERO PUSH3 0x10D5 JUMPI PUSH1 0x80 PUSH17 0x1000000000162E42FEFA494F1478FDE05 DUP3 MUL SWAP1 SHR SWAP1 POP JUMPDEST PUSH1 0x0 PUSH4 0x1000000 DUP5 AND PUSH1 0xF SIGNEXTEND SGT ISZERO PUSH3 0x1103 JUMPI PUSH1 0x80 PUSH17 0x10000000000B17217F7D20CF927C8E94C DUP3 MUL SWAP1 SHR SWAP1 POP JUMPDEST PUSH1 0x0 PUSH3 0x800000 DUP5 AND PUSH1 0xF SIGNEXTEND SGT ISZERO PUSH3 0x1130 JUMPI PUSH1 0x80 PUSH17 0x1000000000058B90BFBE8F71CB4E4B33D DUP3 MUL SWAP1 SHR SWAP1 POP JUMPDEST PUSH1 0x0 PUSH3 0x400000 DUP5 AND PUSH1 0xF SIGNEXTEND SGT ISZERO PUSH3 0x115D JUMPI PUSH1 0x80 PUSH17 0x100000000002C5C85FDF477B662B26945 DUP3 MUL SWAP1 SHR SWAP1 POP JUMPDEST PUSH1 0x0 PUSH3 0x200000 DUP5 AND PUSH1 0xF SIGNEXTEND SGT ISZERO PUSH3 0x118A JUMPI PUSH1 0x80 PUSH17 0x10000000000162E42FEFA3AE53369388C DUP3 MUL SWAP1 SHR SWAP1 POP JUMPDEST PUSH1 0x0 PUSH3 0x100000 DUP5 AND PUSH1 0xF SIGNEXTEND SGT ISZERO PUSH3 0x11B7 JUMPI PUSH1 0x80 PUSH17 0x100000000000B17217F7D1D351A389D40 DUP3 MUL SWAP1 SHR SWAP1 POP JUMPDEST PUSH1 0x0 PUSH3 0x80000 DUP5 AND PUSH1 0xF SIGNEXTEND SGT ISZERO PUSH3 0x11E4 JUMPI PUSH1 0x80 PUSH17 0x10000000000058B90BFBE8E8B2D3D4EDE DUP3 MUL SWAP1 SHR SWAP1 POP JUMPDEST PUSH1 0x0 PUSH3 0x40000 DUP5 AND PUSH1 0xF SIGNEXTEND SGT ISZERO PUSH3 0x1211 JUMPI PUSH1 0x80 PUSH17 0x1000000000002C5C85FDF4741BEA6E77E DUP3 MUL SWAP1 SHR SWAP1 POP JUMPDEST PUSH1 0x0 PUSH3 0x20000 DUP5 AND PUSH1 0xF SIGNEXTEND SGT ISZERO PUSH3 0x123E JUMPI PUSH1 0x80 PUSH17 0x100000000000162E42FEFA39FE95583C2 DUP3 MUL SWAP1 SHR SWAP1 POP JUMPDEST PUSH1 0x0 PUSH3 0x10000 DUP5 AND PUSH1 0xF SIGNEXTEND SGT ISZERO PUSH3 0x126B JUMPI PUSH1 0x80 PUSH17 0x1000000000000B17217F7D1CFB72B45E1 DUP3 MUL SWAP1 SHR SWAP1 POP JUMPDEST PUSH1 0x0 PUSH2 0x8000 DUP5 AND PUSH1 0xF SIGNEXTEND SGT ISZERO PUSH3 0x1297 JUMPI PUSH1 0x80 PUSH17 0x100000000000058B90BFBE8E7CC35C3F0 DUP3 MUL SWAP1 SHR SWAP1 POP JUMPDEST PUSH1 0x0 PUSH2 0x4000 DUP5 AND PUSH1 0xF SIGNEXTEND SGT ISZERO PUSH3 0x12C3 JUMPI PUSH1 0x80 PUSH17 0x10000000000002C5C85FDF473E242EA38 DUP3 MUL SWAP1 SHR SWAP1 POP JUMPDEST PUSH1 0x0 PUSH2 0x2000 DUP5 AND PUSH1 0xF SIGNEXTEND SGT ISZERO PUSH3 0x12EF JUMPI PUSH1 0x80 PUSH17 0x1000000000000162E42FEFA39F02B772C DUP3 MUL SWAP1 SHR SWAP1 POP JUMPDEST PUSH1 0x0 PUSH2 0x1000 DUP5 AND PUSH1 0xF SIGNEXTEND SGT ISZERO PUSH3 0x131B JUMPI PUSH1 0x80 PUSH17 0x10000000000000B17217F7D1CF7D83C1A DUP3 MUL SWAP1 SHR SWAP1 POP JUMPDEST PUSH1 0x0 PUSH2 0x800 DUP5 AND PUSH1 0xF SIGNEXTEND SGT ISZERO PUSH3 0x1347 JUMPI PUSH1 0x80 PUSH17 0x1000000000000058B90BFBE8E7BDCBE2E DUP3 MUL SWAP1 SHR SWAP1 POP JUMPDEST PUSH1 0x0 PUSH2 0x400 DUP5 AND PUSH1 0xF SIGNEXTEND SGT ISZERO PUSH3 0x1373 JUMPI PUSH1 0x80 PUSH17 0x100000000000002C5C85FDF473DEA871F DUP3 MUL SWAP1 SHR SWAP1 POP JUMPDEST PUSH1 0x0 PUSH2 0x200 DUP5 AND PUSH1 0xF SIGNEXTEND SGT ISZERO PUSH3 0x139F JUMPI PUSH1 0x80 PUSH17 0x10000000000000162E42FEFA39EF44D91 DUP3 MUL SWAP1 SHR SWAP1 POP JUMPDEST PUSH1 0x0 PUSH2 0x100 DUP5 AND PUSH1 0xF SIGNEXTEND SGT ISZERO PUSH3 0x13CB JUMPI PUSH1 0x80 PUSH17 0x100000000000000B17217F7D1CF79E949 DUP3 MUL SWAP1 SHR SWAP1 POP JUMPDEST PUSH1 0x0 PUSH1 0x80 DUP5 AND PUSH1 0xF SIGNEXTEND SGT ISZERO PUSH3 0x13F6 JUMPI PUSH1 0x80 PUSH17 0x10000000000000058B90BFBE8E7BCE544 DUP3 MUL SWAP1 SHR SWAP1 POP JUMPDEST PUSH1 0x0 PUSH1 0x40 DUP5 AND PUSH1 0xF SIGNEXTEND SGT ISZERO PUSH3 0x1421 JUMPI PUSH1 0x80 PUSH17 0x1000000000000002C5C85FDF473DE6ECA DUP3 MUL SWAP1 SHR SWAP1 POP JUMPDEST PUSH1 0x0 PUSH1 0x20 DUP5 AND PUSH1 0xF SIGNEXTEND SGT ISZERO PUSH3 0x144C JUMPI PUSH1 0x80 PUSH17 0x100000000000000162E42FEFA39EF366F DUP3 MUL SWAP1 SHR SWAP1 POP JUMPDEST PUSH1 0x0 PUSH1 0x10 DUP5 AND PUSH1 0xF SIGNEXTEND SGT ISZERO PUSH3 0x1477 JUMPI PUSH1 0x80 PUSH17 0x1000000000000000B17217F7D1CF79AFA DUP3 MUL SWAP1 SHR SWAP1 POP JUMPDEST PUSH1 0x0 PUSH1 0x8 DUP5 AND PUSH1 0xF SIGNEXTEND SGT ISZERO PUSH3 0x14A2 JUMPI PUSH1 0x80 PUSH17 0x100000000000000058B90BFBE8E7BCD6D DUP3 MUL SWAP1 SHR SWAP1 POP JUMPDEST PUSH1 0x0 PUSH1 0x4 DUP5 AND PUSH1 0xF SIGNEXTEND SGT ISZERO PUSH3 0x14CD JUMPI PUSH1 0x80 PUSH17 0x10000000000000002C5C85FDF473DE6B2 DUP3 MUL SWAP1 SHR SWAP1 POP JUMPDEST PUSH1 0x0 PUSH1 0x2 DUP5 AND PUSH1 0xF SIGNEXTEND SGT ISZERO PUSH3 0x14F8 JUMPI PUSH1 0x80 PUSH17 0x1000000000000000162E42FEFA39EF358 DUP3 MUL SWAP1 SHR SWAP1 POP JUMPDEST PUSH1 0x0 PUSH1 0x1 DUP5 AND PUSH1 0xF SIGNEXTEND SGT ISZERO PUSH3 0x1523 JUMPI PUSH1 0x80 PUSH17 0x10000000000000000B17217F7D1CF79AB DUP3 MUL SWAP1 SHR SWAP1 POP JUMPDEST PUSH1 0x40 DUP4 PUSH1 0xF SIGNEXTEND SWAP1 SAR PUSH1 0x3F SUB PUSH1 0xF SIGNEXTEND DUP2 SWAP1 SHR SWAP1 POP PUSH16 0x7FFFFFFFFFFFFFFFFFFFFFFFFFFFFFFF PUSH1 0xF SIGNEXTEND DUP2 GT ISZERO PUSH3 0x1557 JUMPI PUSH1 0x0 DUP1 REVERT JUMPDEST DUP1 SWAP2 POP POP JUMPDEST SWAP2 SWAP1 POP JUMP JUMPDEST DUP3 DUP1 SLOAD PUSH1 0x1 DUP2 PUSH1 0x1 AND ISZERO PUSH2 0x100 MUL SUB AND PUSH1 0x2 SWAP1 DIV SWAP1 PUSH1 0x0 MSTORE PUSH1 0x20 PUSH1 0x0 KECCAK256 SWAP1 PUSH1 0x1F ADD PUSH1 0x20 SWAP1 DIV DUP2 ADD SWAP3 DUP3 PUSH3 0x1599 JUMPI PUSH1 0x0 DUP6 SSTORE PUSH3 0x15E5 JUMP JUMPDEST DUP3 PUSH1 0x1F LT PUSH3 0x15B4 JUMPI DUP1 MLOAD PUSH1 0xFF NOT AND DUP4 DUP1 ADD OR DUP6 SSTORE PUSH3 0x15E5 JUMP JUMPDEST DUP3 DUP1 ADD PUSH1 0x1 ADD DUP6 SSTORE DUP3 ISZERO PUSH3 0x15E5 JUMPI SWAP2 DUP3 ADD JUMPDEST DUP3 DUP2 GT ISZERO PUSH3 0x15E4 JUMPI DUP3 MLOAD DUP3 SSTORE SWAP2 PUSH1 0x20 ADD SWAP2 SWAP1 PUSH1 0x1 ADD SWAP1 PUSH3 0x15C7 JUMP JUMPDEST JUMPDEST POP SWAP1 POP PUSH3 0x15F4 SWAP2 SWAP1 PUSH3 0x15F8 JUMP JUMPDEST POP SWAP1 JUMP JUMPDEST JUMPDEST DUP1 DUP3 GT ISZERO PUSH3 0x1613 JUMPI PUSH1 0x0 DUP2 PUSH1 0x0 SWAP1 SSTORE POP PUSH1 0x1 ADD PUSH3 0x15F9 JUMP JUMPDEST POP SWAP1 JUMP JUMPDEST PUSH2 0x2D78 DUP1 PUSH3 0x1627 PUSH1 0x0 CODECOPY PUSH1 0x0 RETURN INVALID PUSH1 0x80 PUSH1 0x40 MSTORE PUSH1 0x4 CALLDATASIZE LT PUSH2 0x11F JUMPI PUSH1 0x0 CALLDATALOAD PUSH1 0xE0 SHR DUP1 PUSH4 0x653B599B GT PUSH2 0xA0 JUMPI DUP1 PUSH4 0xB2D05711 GT PUSH2 0x64 JUMPI DUP1 PUSH4 0xB2D05711 EQ PUSH2 0x4F6 JUMPI DUP1 PUSH4 0xB77641AD EQ PUSH2 0x521 JUMPI DUP1 PUSH4 0xB88A802F EQ PUSH2 0x52B JUMPI DUP1 PUSH4 0xD23890E9 EQ PUSH2 0x556 JUMPI DUP1 PUSH4 0xFD8C8219 EQ PUSH2 0x5A8 JUMPI PUSH2 0x11F JUMP JUMPDEST DUP1 PUSH4 0x653B599B EQ PUSH2 0x37A JUMPI DUP1 PUSH4 0x7E7E4B47 EQ PUSH2 0x3DC JUMPI DUP1 PUSH4 0x8BB9E448 EQ PUSH2 0x40A JUMPI DUP1 PUSH4 0xA85ADEAB EQ PUSH2 0x469 JUMPI DUP1 PUSH4 0xADFA9009 EQ PUSH2 0x494 JUMPI PUSH2 0x11F JUMP JUMPDEST DUP1 PUSH4 0x36EA431E GT PUSH2 0xE7 JUMPI DUP1 PUSH4 0x36EA431E EQ PUSH2 0x250 JUMPI DUP1 PUSH4 0x3A98EF39 EQ PUSH2 0x28E JUMPI DUP1 PUSH4 0x4EA12B62 EQ PUSH2 0x2BC JUMPI DUP1 PUSH4 0x4F09D6B5 EQ PUSH2 0x30E JUMPI DUP1 PUSH4 0x5A920320 EQ PUSH2 0x339 JUMPI PUSH2 0x11F JUMP JUMPDEST DUP1 PUSH4 0x13FAEDE6 EQ PUSH2 0x124 JUMPI DUP1 PUSH4 0x14444772 EQ PUSH2 0x152 JUMPI DUP1 PUSH4 0x200D2ED2 EQ PUSH2 0x180 JUMPI DUP1 PUSH4 0x288B212F EQ PUSH2 0x1B6 JUMPI DUP1 PUSH4 0x311A6C56 EQ PUSH2 0x20B JUMPI JUMPDEST PUSH1 0x0 DUP1 REVERT JUMPDEST CALLVALUE DUP1 ISZERO PUSH2 0x130 JUMPI PUSH1 0x0 DUP1 REVERT JUMPDEST POP PUSH2 0x139 PUSH2 0x61D JUMP JUMPDEST PUSH1 0x40 MLOAD DUP1 DUP3 PUSH1 0xF SIGNEXTEND DUP2 MSTORE PUSH1 0x20 ADD SWAP2 POP POP PUSH1 0x40 MLOAD DUP1 SWAP2 SUB SWAP1 RETURN JUMPDEST CALLVALUE DUP1 ISZERO PUSH2 0x15E JUMPI PUSH1 0x0 DUP1 REVERT JUMPDEST POP PUSH2 0x167 PUSH2 0x6CC JUMP JUMPDEST PUSH1 0x40 MLOAD DUP1 DUP3 PUSH1 0xFF AND DUP2 MSTORE PUSH1 0x20 ADD SWAP2 POP POP PUSH1 0x40 MLOAD DUP1 SWAP2 SUB SWAP1 RETURN JUMPDEST CALLVALUE DUP1 ISZERO PUSH2 0x18C JUMPI PUSH1 0x0 DUP1 REVERT JUMPDEST POP PUSH2 0x195 PUSH2 0x6DD JUMP JUMPDEST PUSH1 0x40 MLOAD DUP1 DUP3 PUSH1 0x4 DUP2 GT ISZERO PUSH2 0x1A5 JUMPI INVALID JUMPDEST DUP2 MSTORE PUSH1 0x20 ADD SWAP2 POP POP PUSH1 0x40 MLOAD DUP1 SWAP2 SUB SWAP1 RETURN JUMPDEST CALLVALUE DUP1 ISZERO PUSH2 0x1C2 JUMPI PUSH1 0x0 DUP1 REVERT JUMPDEST POP PUSH2 0x1F2 PUSH1 0x4 DUP1 CALLDATASIZE SUB PUSH1 0x20 DUP2 LT ISZERO PUSH2 0x1D9 JUMPI PUSH1 0x0 DUP1 REVERT JUMPDEST DUP2 ADD SWAP1 DUP1 DUP1 CALLDATALOAD PUSH1 0xFF AND SWAP1 PUSH1 0x20 ADD SWAP1 SWAP3 SWAP2 SWAP1 POP POP POP PUSH2 0x6F0 JUMP JUMPDEST PUSH1 0x40 MLOAD DUP1 DUP3 PUSH1 0xF SIGNEXTEND DUP2 MSTORE PUSH1 0x20 ADD SWAP2 POP POP PUSH1 0x40 MLOAD DUP1 SWAP2 SUB SWAP1 RETURN JUMPDEST CALLVALUE DUP1 ISZERO PUSH2 0x217 JUMPI PUSH1 0x0 DUP1 REVERT JUMPDEST POP PUSH2 0x24E PUSH1 0x4 DUP1 CALLDATASIZE SUB PUSH1 0x40 DUP2 LT ISZERO PUSH2 0x22E JUMPI PUSH1 0x0 DUP1 REVERT JUMPDEST DUP2 ADD SWAP1 DUP1 DUP1 CALLDATALOAD SWAP1 PUSH1 0x20 ADD SWAP1 SWAP3 SWAP2 SWAP1 DUP1 CALLDATALOAD SWAP1 PUSH1 0x20 ADD SWAP1 SWAP3 SWAP2 SWAP1 POP POP POP PUSH2 0x720 JUMP JUMPDEST STOP JUMPDEST CALLVALUE DUP1 ISZERO PUSH2 0x25C JUMPI PUSH1 0x0 DUP1 REVERT JUMPDEST POP PUSH2 0x28C PUSH1 0x4 DUP1 CALLDATASIZE SUB PUSH1 0x20 DUP2 LT ISZERO PUSH2 0x273 JUMPI PUSH1 0x0 DUP1 REVERT JUMPDEST DUP2 ADD SWAP1 DUP1 DUP1 CALLDATALOAD PUSH1 0xFF AND SWAP1 PUSH1 0x20 ADD SWAP1 SWAP3 SWAP2 SWAP1 POP POP POP PUSH2 0x994 JUMP JUMPDEST STOP JUMPDEST CALLVALUE DUP1 ISZERO PUSH2 0x29A JUMPI PUSH1 0x0 DUP1 REVERT JUMPDEST POP PUSH2 0x2A3 PUSH2 0xD0E JUMP JUMPDEST PUSH1 0x40 MLOAD DUP1 DUP3 PUSH1 0xF SIGNEXTEND DUP2 MSTORE PUSH1 0x20 ADD SWAP2 POP POP PUSH1 0x40 MLOAD DUP1 SWAP2 SUB SWAP1 RETURN JUMPDEST CALLVALUE DUP1 ISZERO PUSH2 0x2C8 JUMPI PUSH1 0x0 DUP1 REVERT JUMPDEST POP PUSH2 0x2F5 PUSH1 0x4 DUP1 CALLDATASIZE SUB PUSH1 0x20 DUP2 LT ISZERO PUSH2 0x2DF JUMPI PUSH1 0x0 DUP1 REVERT JUMPDEST DUP2 ADD SWAP1 DUP1 DUP1 CALLDATALOAD SWAP1 PUSH1 0x20 ADD SWAP1 SWAP3 SWAP2 SWAP1 POP POP POP PUSH2 0xD25 JUMP JUMPDEST PUSH1 0x40 MLOAD DUP1 DUP3 PUSH1 0xF SIGNEXTEND DUP2 MSTORE PUSH1 0x20 ADD SWAP2 POP POP PUSH1 0x40 MLOAD DUP1 SWAP2 SUB SWAP1 RETURN JUMPDEST CALLVALUE DUP1 ISZERO PUSH2 0x31A JUMPI PUSH1 0x0 DUP1 REVERT JUMPDEST POP PUSH2 0x323 PUSH2 0xD37 JUMP JUMPDEST PUSH1 0x40 MLOAD DUP1 DUP3 DUP2 MSTORE PUSH1 0x20 ADD SWAP2 POP POP PUSH1 0x40 MLOAD DUP1 SWAP2 SUB SWAP1 RETURN JUMPDEST CALLVALUE DUP1 ISZERO PUSH2 0x345 JUMPI PUSH1 0x0 DUP1 REVERT JUMPDEST POP PUSH2 0x34E PUSH2 0xD3D JUMP JUMPDEST PUSH1 0x40 MLOAD DUP1 DUP3 PUSH20 0xFFFFFFFFFFFFFFFFFFFFFFFFFFFFFFFFFFFFFFFF AND DUP2 MSTORE PUSH1 0x20 ADD SWAP2 POP POP PUSH1 0x40 MLOAD DUP1 SWAP2 SUB SWAP1 RETURN JUMPDEST CALLVALUE DUP1 ISZERO PUSH2 0x386 JUMPI PUSH1 0x0 DUP1 REVERT JUMPDEST POP PUSH2 0x3C3 PUSH1 0x4 DUP1 CALLDATASIZE SUB PUSH1 0x40 DUP2 LT ISZERO PUSH2 0x39D JUMPI PUSH1 0x0 DUP1 REVERT JUMPDEST DUP2 ADD SWAP1 DUP1 DUP1 CALLDATALOAD PUSH1 0xFF AND SWAP1 PUSH1 0x20 ADD SWAP1 SWAP3 SWAP2 SWAP1 DUP1 CALLDATALOAD PUSH1 0xF SIGNEXTEND SWAP1 PUSH1 0x20 ADD SWAP1 SWAP3 SWAP2 SWAP1 POP POP POP PUSH2 0xD63 JUMP JUMPDEST PUSH1 0x40 MLOAD DUP1 DUP3 PUSH1 0xF SIGNEXTEND DUP2 MSTORE PUSH1 0x20 ADD SWAP2 POP POP PUSH1 0x40 MLOAD DUP1 SWAP2 SUB SWAP1 RETURN JUMPDEST CALLVALUE DUP1 ISZERO PUSH2 0x3E8 JUMPI PUSH1 0x0 DUP1 REVERT JUMPDEST POP PUSH2 0x3F1 PUSH2 0x130E JUMP JUMPDEST PUSH1 0x40 MLOAD DUP1 DUP3 PUSH1 0xFF AND DUP2 MSTORE PUSH1 0x20 ADD SWAP2 POP POP PUSH1 0x40 MLOAD DUP1 SWAP2 SUB SWAP1 RETURN JUMPDEST CALLVALUE DUP1 ISZERO PUSH2 0x416 JUMPI PUSH1 0x0 DUP1 REVERT JUMPDEST POP PUSH2 0x453 PUSH1 0x4 DUP1 CALLDATASIZE SUB PUSH1 0x40 DUP2 LT ISZERO PUSH2 0x42D JUMPI PUSH1 0x0 DUP1 REVERT JUMPDEST DUP2 ADD SWAP1 DUP1 DUP1 CALLDATALOAD PUSH1 0xFF AND SWAP1 PUSH1 0x20 ADD SWAP1 SWAP3 SWAP2 SWAP1 DUP1 CALLDATALOAD PUSH1 0xF SIGNEXTEND SWAP1 PUSH1 0x20 ADD SWAP1 SWAP3 SWAP2 SWAP1 POP POP POP PUSH2 0x1324 JUMP JUMPDEST PUSH1 0x40 MLOAD DUP1 DUP3 DUP2 MSTORE PUSH1 0x20 ADD SWAP2 POP POP PUSH1 0x40 MLOAD DUP1 SWAP2 SUB SWAP1 RETURN JUMPDEST CALLVALUE DUP1 ISZERO PUSH2 0x475 JUMPI PUSH1 0x0 DUP1 REVERT JUMPDEST POP PUSH2 0x47E PUSH2 0x1354 JUMP JUMPDEST PUSH1 0x40 MLOAD DUP1 DUP3 DUP2 MSTORE PUSH1 0x20 ADD SWAP2 POP POP PUSH1 0x40 MLOAD DUP1 SWAP2 SUB SWAP1 RETURN JUMPDEST CALLVALUE DUP1 ISZERO PUSH2 0x4A0 JUMPI PUSH1 0x0 DUP1 REVERT JUMPDEST POP PUSH2 0x4DD PUSH1 0x4 DUP1 CALLDATASIZE SUB PUSH1 0x40 DUP2 LT ISZERO PUSH2 0x4B7 JUMPI PUSH1 0x0 DUP1 REVERT JUMPDEST DUP2 ADD SWAP1 DUP1 DUP1 CALLDATALOAD PUSH1 0xFF AND SWAP1 PUSH1 0x20 ADD SWAP1 SWAP3 SWAP2 SWAP1 DUP1 CALLDATALOAD PUSH1 0xF SIGNEXTEND SWAP1 PUSH1 0x20 ADD SWAP1 SWAP3 SWAP2 SWAP1 POP POP POP PUSH2 0x135A JUMP JUMPDEST PUSH1 0x40 MLOAD DUP1 DUP3 PUSH1 0xF SIGNEXTEND DUP2 MSTORE PUSH1 0x20 ADD SWAP2 POP POP PUSH1 0x40 MLOAD DUP1 SWAP2 SUB SWAP1 RETURN JUMPDEST CALLVALUE DUP1 ISZERO PUSH2 0x502 JUMPI PUSH1 0x0 DUP1 REVERT JUMPDEST POP PUSH2 0x50B PUSH2 0x1483 JUMP JUMPDEST PUSH1 0x40 MLOAD DUP1 DUP3 DUP2 MSTORE PUSH1 0x20 ADD SWAP2 POP POP PUSH1 0x40 MLOAD DUP1 SWAP2 SUB SWAP1 RETURN JUMPDEST PUSH2 0x529 PUSH2 0x1489 JUMP JUMPDEST STOP JUMPDEST CALLVALUE DUP1 ISZERO PUSH2 0x537 JUMPI PUSH1 0x0 DUP1 REVERT JUMPDEST POP PUSH2 0x540 PUSH2 0x18E8 JUMP JUMPDEST PUSH1 0x40 MLOAD DUP1 DUP3 DUP2 MSTORE PUSH1 0x20 ADD SWAP2 POP POP PUSH1 0x40 MLOAD DUP1 SWAP2 SUB SWAP1 RETURN JUMPDEST CALLVALUE DUP1 ISZERO PUSH2 0x562 JUMPI PUSH1 0x0 DUP1 REVERT JUMPDEST POP PUSH2 0x592 PUSH1 0x4 DUP1 CALLDATASIZE SUB PUSH1 0x20 DUP2 LT ISZERO PUSH2 0x579 JUMPI PUSH1 0x0 DUP1 REVERT JUMPDEST DUP2 ADD SWAP1 DUP1 DUP1 CALLDATALOAD PUSH1 0xF SIGNEXTEND SWAP1 PUSH1 0x20 ADD SWAP1 SWAP3 SWAP2 SWAP1 POP POP POP PUSH2 0x1C21 JUMP JUMPDEST PUSH1 0x40 MLOAD DUP1 DUP3 DUP2 MSTORE PUSH1 0x20 ADD SWAP2 POP POP PUSH1 0x40 MLOAD DUP1 SWAP2 SUB SWAP1 RETURN JUMPDEST CALLVALUE DUP1 ISZERO PUSH2 0x5B4 JUMPI PUSH1 0x0 DUP1 REVERT JUMPDEST POP PUSH2 0x604 PUSH1 0x4 DUP1 CALLDATASIZE SUB PUSH1 0x40 DUP2 LT ISZERO PUSH2 0x5CB JUMPI PUSH1 0x0 DUP1 REVERT JUMPDEST DUP2 ADD SWAP1 DUP1 DUP1 CALLDATALOAD PUSH1 0xFF AND SWAP1 PUSH1 0x20 ADD SWAP1 SWAP3 SWAP2 SWAP1 DUP1 CALLDATALOAD PUSH20 0xFFFFFFFFFFFFFFFFFFFFFFFFFFFFFFFFFFFFFFFF AND SWAP1 PUSH1 0x20 ADD SWAP1 SWAP3 SWAP2 SWAP1 POP POP POP PUSH2 0x1C42 JUMP JUMPDEST PUSH1 0x40 MLOAD DUP1 DUP3 PUSH1 0xF SIGNEXTEND DUP2 MSTORE PUSH1 0x20 ADD SWAP2 POP POP PUSH1 0x40 MLOAD DUP1 SWAP2 SUB SWAP1 RETURN JUMPDEST PUSH1 0x0 DUP1 PUSH1 0x0 PUSH1 0x1 SWAP1 POP JUMPDEST PUSH1 0x1 PUSH1 0x0 DUP1 SLOAD SWAP1 PUSH2 0x100 EXP SWAP1 DIV PUSH1 0xFF AND ADD PUSH1 0xFF AND DUP2 PUSH1 0xFF AND LT ISZERO PUSH2 0x6A4 JUMPI PUSH2 0x695 DUP3 PUSH2 0x690 PUSH2 0x68B PUSH1 0x1 PUSH1 0x0 DUP7 PUSH1 0xFF AND PUSH1 0xFF AND DUP2 MSTORE PUSH1 0x20 ADD SWAP1 DUP2 MSTORE PUSH1 0x20 ADD PUSH1 0x0 KECCAK256 PUSH1 0x0 SWAP1 SLOAD SWAP1 PUSH2 0x100 EXP SWAP1 DIV PUSH1 0xF SIGNEXTEND PUSH1 0x3 PUSH1 0x0 SWAP1 SLOAD SWAP1 PUSH2 0x100 EXP SWAP1 DIV PUSH1 0xF SIGNEXTEND PUSH2 0x1D78 JUMP JUMPDEST PUSH2 0x1DFB JUMP JUMPDEST PUSH2 0x1E74 JUMP JUMPDEST SWAP2 POP DUP1 DUP1 PUSH1 0x1 ADD SWAP2 POP POP PUSH2 0x627 JUMP JUMPDEST POP PUSH2 0x6C6 PUSH1 0x3 PUSH1 0x0 SWAP1 SLOAD SWAP1 PUSH2 0x100 EXP SWAP1 DIV PUSH1 0xF SIGNEXTEND PUSH2 0x6C1 DUP4 PUSH2 0x1CD3 JUMP JUMPDEST PUSH2 0x1D0D JUMP JUMPDEST SWAP2 POP POP SWAP1 JUMP JUMPDEST PUSH1 0x0 DUP1 SLOAD SWAP1 PUSH2 0x100 EXP SWAP1 DIV PUSH1 0xFF AND DUP2 JUMP JUMPDEST PUSH1 0xC PUSH1 0x14 SWAP1 SLOAD SWAP1 PUSH2 0x100 EXP SWAP1 DIV PUSH1 0xFF AND DUP2 JUMP JUMPDEST PUSH1 0x0 PUSH1 0x1 PUSH1 0x0 DUP4 PUSH1 0xFF AND PUSH1 0xFF AND DUP2 MSTORE PUSH1 0x20 ADD SWAP1 DUP2 MSTORE PUSH1 0x20 ADD PUSH1 0x0 KECCAK256 PUSH1 0x0 SWAP1 SLOAD SWAP1 PUSH2 0x100 EXP SWAP1 DIV PUSH1 0xF SIGNEXTEND SWAP1 POP SWAP2 SWAP1 POP JUMP JUMPDEST PUSH1 0xC PUSH1 0x0 SWAP1 SLOAD SWAP1 PUSH2 0x100 EXP SWAP1 DIV PUSH20 0xFFFFFFFFFFFFFFFFFFFFFFFFFFFFFFFFFFFFFFFF AND PUSH20 0xFFFFFFFFFFFFFFFFFFFFFFFFFFFFFFFFFFFFFFFF AND CALLER PUSH20 0xFFFFFFFFFFFFFFFFFFFFFFFFFFFFFFFFFFFFFFFF AND EQ PUSH2 0x7E3 JUMPI PUSH1 0x40 MLOAD PUSH32 0x8C379A000000000000000000000000000000000000000000000000000000000 DUP2 MSTORE PUSH1 0x4 ADD DUP1 DUP1 PUSH1 0x20 ADD DUP3 DUP2 SUB DUP3 MSTORE PUSH1 0xF DUP2 MSTORE PUSH1 0x20 ADD DUP1 PUSH32 0x4A55534520555345204B4C45524F530000000000000000000000000000000000 DUP2 MSTORE POP PUSH1 0x20 ADD SWAP2 POP POP PUSH1 0x40 MLOAD DUP1 SWAP2 SUB SWAP1 REVERT JUMPDEST PUSH1 0x8 SLOAD DUP3 EQ PUSH2 0x85A JUMPI PUSH1 0x40 MLOAD PUSH32 0x8C379A000000000000000000000000000000000000000000000000000000000 DUP2 MSTORE PUSH1 0x4 ADD DUP1 DUP1 PUSH1 0x20 ADD DUP3 DUP2 SUB DUP3 MSTORE PUSH1 0xD DUP2 MSTORE PUSH1 0x20 ADD DUP1 PUSH32 0x57524F4E47204449535055544500000000000000000000000000000000000000 DUP2 MSTORE POP PUSH1 0x20 ADD SWAP2 POP POP PUSH1 0x40 MLOAD DUP1 SWAP2 SUB SWAP1 REVERT JUMPDEST PUSH1 0x0 PUSH1 0x1 SWAP1 SLOAD SWAP1 PUSH2 0x100 EXP SWAP1 DIV PUSH1 0xFF AND PUSH1 0xFF AND DUP2 PUSH1 0xFF AND EQ ISZERO PUSH2 0x87C JUMPI PUSH2 0x8FB JUMP JUMPDEST DUP1 PUSH1 0x0 PUSH1 0x1 PUSH2 0x100 EXP DUP2 SLOAD DUP2 PUSH1 0xFF MUL NOT AND SWAP1 DUP4 PUSH1 0xFF AND MUL OR SWAP1 SSTORE POP PUSH1 0xA PUSH1 0x0 SWAP1 SLOAD SWAP1 PUSH2 0x100 EXP SWAP1 DIV PUSH20 0xFFFFFFFFFFFFFFFFFFFFFFFFFFFFFFFFFFFFFFFF AND PUSH1 0x9 PUSH1 0x0 PUSH2 0x100 EXP DUP2 SLOAD DUP2 PUSH20 0xFFFFFFFFFFFFFFFFFFFFFFFFFFFFFFFFFFFFFFFF MUL NOT AND SWAP1 DUP4 PUSH20 0xFFFFFFFFFFFFFFFFFFFFFFFFFFFFFFFFFFFFFFFF AND MUL OR SWAP1 SSTORE POP JUMPDEST PUSH1 0x4 PUSH1 0xC PUSH1 0x14 PUSH2 0x100 EXP DUP2 SLOAD DUP2 PUSH1 0xFF MUL NOT AND SWAP1 DUP4 PUSH1 0x4 DUP2 GT ISZERO PUSH2 0x91A JUMPI INVALID JUMPDEST MUL OR SWAP1 SSTORE POP DUP2 PUSH1 0xC PUSH1 0x0 SWAP1 SLOAD SWAP1 PUSH2 0x100 EXP SWAP1 DIV PUSH20 0xFFFFFFFFFFFFFFFFFFFFFFFFFFFFFFFFFFFFFFFF AND PUSH20 0xFFFFFFFFFFFFFFFFFFFFFFFFFFFFFFFFFFFFFFFF AND PUSH32 0x394027A5FA6E098A1191094D1719D6929B9ABC535FCC0C8F448D6A4E75622276 DUP4 PUSH1 0x40 MLOAD DUP1 DUP3 DUP2 MSTORE PUSH1 0x20 ADD SWAP2 POP POP PUSH1 0x40 MLOAD DUP1 SWAP2 SUB SWAP1 LOG3 POP POP JUMP JUMPDEST PUSH1 0x3 PUSH1 0x4 DUP2 GT ISZERO PUSH2 0x9A1 JUMPI INVALID JUMPDEST PUSH1 0xC PUSH1 0x14 SWAP1 SLOAD SWAP1 PUSH2 0x100 EXP SWAP1 DIV PUSH1 0xFF AND PUSH1 0x4 DUP2 GT ISZERO PUSH2 0x9BC JUMPI INVALID JUMPDEST EQ ISZERO PUSH2 0xA30 JUMPI PUSH1 0x40 MLOAD PUSH32 0x8C379A000000000000000000000000000000000000000000000000000000000 DUP2 MSTORE PUSH1 0x4 ADD DUP1 DUP1 PUSH1 0x20 ADD DUP3 DUP2 SUB DUP3 MSTORE PUSH1 0x17 DUP2 MSTORE PUSH1 0x20 ADD DUP1 PUSH32 0x4445434953494F4E20474F4E4520544F204B4C45524F53000000000000000000 DUP2 MSTORE POP PUSH1 0x20 ADD SWAP2 POP POP PUSH1 0x40 MLOAD DUP1 SWAP2 SUB SWAP1 REVERT JUMPDEST PUSH1 0x9 PUSH1 0x0 SWAP1 SLOAD SWAP1 PUSH2 0x100 EXP SWAP1 DIV PUSH20 0xFFFFFFFFFFFFFFFFFFFFFFFFFFFFFFFFFFFFFFFF AND PUSH20 0xFFFFFFFFFFFFFFFFFFFFFFFFFFFFFFFFFFFFFFFF AND CALLER PUSH20 0xFFFFFFFFFFFFFFFFFFFFFFFFFFFFFFFFFFFFFFFF AND EQ PUSH2 0xAF3 JUMPI PUSH1 0x40 MLOAD PUSH32 0x8C379A000000000000000000000000000000000000000000000000000000000 DUP2 MSTORE PUSH1 0x4 ADD DUP1 DUP1 PUSH1 0x20 ADD DUP3 DUP2 SUB DUP3 MSTORE PUSH1 0x14 DUP2 MSTORE PUSH1 0x20 ADD DUP1 PUSH32 0x4F4E4C59204D41535445522043414E2043414C4C000000000000000000000000 DUP2 MSTORE POP PUSH1 0x20 ADD SWAP2 POP POP PUSH1 0x40 MLOAD DUP1 SWAP2 SUB SWAP1 REVERT JUMPDEST PUSH1 0x7 SLOAD TIMESTAMP GT PUSH2 0xB6A JUMPI PUSH1 0x40 MLOAD PUSH32 0x8C379A000000000000000000000000000000000000000000000000000000000 DUP2 MSTORE PUSH1 0x4 ADD DUP1 DUP1 PUSH1 0x20 ADD DUP3 DUP2 SUB DUP3 MSTORE PUSH1 0x1B DUP2 MSTORE PUSH1 0x20 ADD DUP1 PUSH32 0x544F4F204541524C5920544F20444543494445204F5554434F4D450000000000 DUP2 MSTORE POP PUSH1 0x20 ADD SWAP2 POP POP PUSH1 0x40 MLOAD DUP1 SWAP2 SUB SWAP1 REVERT JUMPDEST PUSH1 0x0 PUSH1 0x4 DUP2 GT ISZERO PUSH2 0xB77 JUMPI INVALID JUMPDEST PUSH1 0xC PUSH1 0x14 SWAP1 SLOAD SWAP1 PUSH2 0x100 EXP SWAP1 DIV PUSH1 0xFF AND PUSH1 0x4 DUP2 GT ISZERO PUSH2 0xB92 JUMPI INVALID JUMPDEST EQ DUP1 PUSH2 0xBC3 JUMPI POP PUSH1 0x1 PUSH1 0x4 DUP2 GT ISZERO PUSH2 0xBA6 JUMPI INVALID JUMPDEST PUSH1 0xC PUSH1 0x14 SWAP1 SLOAD SWAP1 PUSH2 0x100 EXP SWAP1 DIV PUSH1 0xFF AND PUSH1 0x4 DUP2 GT ISZERO PUSH2 0xBC1 JUMPI INVALID JUMPDEST EQ JUMPDEST PUSH2 0xC35 JUMPI PUSH1 0x40 MLOAD PUSH32 0x8C379A000000000000000000000000000000000000000000000000000000000 DUP2 MSTORE PUSH1 0x4 ADD DUP1 DUP1 PUSH1 0x20 ADD DUP3 DUP2 SUB DUP3 MSTORE PUSH1 0xD DUP2 MSTORE PUSH1 0x20 ADD DUP1 PUSH32 0x494E56414C494420535441544500000000000000000000000000000000000000 DUP2 MSTORE POP PUSH1 0x20 ADD SWAP2 POP POP PUSH1 0x40 MLOAD DUP1 SWAP2 SUB SWAP1 REVERT JUMPDEST PUSH1 0x1 PUSH1 0x0 DUP1 SLOAD SWAP1 PUSH2 0x100 EXP SWAP1 DIV PUSH1 0xFF AND ADD PUSH1 0xFF AND DUP2 PUSH1 0xFF AND LT PUSH2 0xCC0 JUMPI PUSH1 0x40 MLOAD PUSH32 0x8C379A000000000000000000000000000000000000000000000000000000000 DUP2 MSTORE PUSH1 0x4 ADD DUP1 DUP1 PUSH1 0x20 ADD DUP3 DUP2 SUB DUP3 MSTORE PUSH1 0x11 DUP2 MSTORE PUSH1 0x20 ADD DUP1 PUSH32 0x494E56414C4944204F5554434F4D452121000000000000000000000000000000 DUP2 MSTORE POP PUSH1 0x20 ADD SWAP2 POP POP PUSH1 0x40 MLOAD DUP1 SWAP2 SUB SWAP1 REVERT JUMPDEST DUP1 PUSH1 0x0 PUSH1 0x1 PUSH2 0x100 EXP DUP2 SLOAD DUP2 PUSH1 0xFF MUL NOT AND SWAP1 DUP4 PUSH1 0xFF AND MUL OR SWAP1 SSTORE POP PUSH1 0x2 PUSH1 0xC PUSH1 0x14 PUSH2 0x100 EXP DUP2 SLOAD DUP2 PUSH1 0xFF MUL NOT AND SWAP1 DUP4 PUSH1 0x4 DUP2 GT ISZERO PUSH2 0xCFA JUMPI INVALID JUMPDEST MUL OR SWAP1 SSTORE POP PUSH3 0x15180 TIMESTAMP ADD PUSH1 0x5 DUP2 SWAP1 SSTORE POP POP JUMP JUMPDEST PUSH1 0x0 PUSH1 0x4 PUSH1 0x10 SWAP1 SLOAD SWAP1 PUSH2 0x100 EXP SWAP1 DIV PUSH1 0xF SIGNEXTEND SWAP1 POP SWAP1 JUMP JUMPDEST PUSH1 0x0 PUSH2 0xD30 DUP3 PUSH2 0x1CB0 JUMP JUMPDEST SWAP1 POP SWAP2 SWAP1 POP JUMP JUMPDEST PUSH1 0x5 SLOAD DUP2 JUMP JUMPDEST PUSH1 0xC PUSH1 0x0 SWAP1 SLOAD SWAP1 PUSH2 0x100 EXP SWAP1 DIV PUSH20 0xFFFFFFFFFFFFFFFFFFFFFFFFFFFFFFFFFFFFFFFF AND DUP2 JUMP JUMPDEST PUSH1 0x0 DUP1 PUSH1 0x4 DUP2 GT ISZERO PUSH2 0xD71 JUMPI INVALID JUMPDEST PUSH1 0xC PUSH1 0x14 SWAP1 SLOAD SWAP1 PUSH2 0x100 EXP SWAP1 DIV PUSH1 0xFF AND PUSH1 0x4 DUP2 GT ISZERO PUSH2 0xD8C JUMPI INVALID JUMPDEST EQ PUSH2 0xDFF JUMPI PUSH1 0x40 MLOAD PUSH32 0x8C379A000000000000000000000000000000000000000000000000000000000 DUP2 MSTORE PUSH1 0x4 ADD DUP1 DUP1 PUSH1 0x20 ADD DUP3 DUP2 SUB DUP3 MSTORE PUSH1 0xC DUP2 MSTORE PUSH1 0x20 ADD DUP1 PUSH32 0x4E6F206D6F726520626574730000000000000000000000000000000000000000 DUP2 MSTORE POP PUSH1 0x20 ADD SWAP2 POP POP PUSH1 0x40 MLOAD DUP1 SWAP2 SUB SWAP1 REVERT JUMPDEST PUSH1 0x1 PUSH1 0x0 DUP1 SLOAD SWAP1 PUSH2 0x100 EXP SWAP1 DIV PUSH1 0xFF AND ADD PUSH1 0xFF AND DUP4 PUSH1 0xFF AND LT PUSH2 0xE8A JUMPI PUSH1 0x40 MLOAD PUSH32 0x8C379A000000000000000000000000000000000000000000000000000000000 DUP2 MSTORE PUSH1 0x4 ADD DUP1 DUP1 PUSH1 0x20 ADD DUP3 DUP2 SUB DUP3 MSTORE PUSH1 0xE DUP2 MSTORE PUSH1 0x20 ADD DUP1 PUSH32 0x496E76616C6964206F7074696F6E000000000000000000000000000000000000 DUP2 MSTORE POP PUSH1 0x20 ADD SWAP2 POP POP PUSH1 0x40 MLOAD DUP1 SWAP2 SUB SWAP1 REVERT JUMPDEST PUSH1 0x0 DUP4 PUSH1 0xFF AND GT PUSH2 0xF03 JUMPI PUSH1 0x40 MLOAD PUSH32 0x8C379A000000000000000000000000000000000000000000000000000000000 DUP2 MSTORE PUSH1 0x4 ADD DUP1 DUP1 PUSH1 0x20 ADD DUP3 DUP2 SUB DUP3 MSTORE PUSH1 0x15 DUP2 MSTORE PUSH1 0x20 ADD DUP1 PUSH32 0x43616E277420626574206F6E206F7074696F6E20300000000000000000000000 DUP2 MSTORE POP PUSH1 0x20 ADD SWAP2 POP POP PUSH1 0x40 MLOAD DUP1 SWAP2 SUB SWAP1 REVERT JUMPDEST PUSH1 0x4 PUSH1 0x10 SWAP1 SLOAD SWAP1 PUSH2 0x100 EXP SWAP1 DIV PUSH1 0xF SIGNEXTEND PUSH1 0xF SIGNEXTEND DUP3 PUSH1 0xF SIGNEXTEND SLT PUSH2 0xF8D JUMPI PUSH1 0x40 MLOAD PUSH32 0x8C379A000000000000000000000000000000000000000000000000000000000 DUP2 MSTORE PUSH1 0x4 ADD DUP1 DUP1 PUSH1 0x20 ADD DUP3 DUP2 SUB DUP3 MSTORE PUSH1 0x17 DUP2 MSTORE PUSH1 0x20 ADD DUP1 PUSH32 0x427579696E6720746F6F206D616E792073686172657321000000000000000000 DUP2 MSTORE POP PUSH1 0x20 ADD SWAP2 POP POP PUSH1 0x40 MLOAD DUP1 SWAP2 SUB SWAP1 REVERT JUMPDEST PUSH1 0x6 SLOAD TIMESTAMP GT ISZERO PUSH2 0xFC0 JUMPI PUSH1 0x1 PUSH1 0xC PUSH1 0x14 PUSH2 0x100 EXP DUP2 SLOAD DUP2 PUSH1 0xFF MUL NOT AND SWAP1 DUP4 PUSH1 0x4 DUP2 GT ISZERO PUSH2 0xFB6 JUMPI INVALID JUMPDEST MUL OR SWAP1 SSTORE POP PUSH2 0x1308 JUMP JUMPDEST PUSH1 0x0 DUP1 PUSH2 0xFDC PUSH1 0x4 PUSH1 0x10 SWAP1 SLOAD SWAP1 PUSH2 0x100 EXP SWAP1 DIV PUSH1 0xF SIGNEXTEND DUP6 PUSH2 0x1E74 JUMP JUMPDEST PUSH1 0x4 PUSH1 0x10 PUSH2 0x100 EXP DUP2 SLOAD DUP2 PUSH16 0xFFFFFFFFFFFFFFFFFFFFFFFFFFFFFFFF MUL NOT AND SWAP1 DUP4 PUSH1 0xF SIGNEXTEND PUSH16 0xFFFFFFFFFFFFFFFFFFFFFFFFFFFFFFFF AND MUL OR SWAP1 SSTORE POP PUSH2 0x103F PUSH1 0x4 PUSH1 0x10 SWAP1 SLOAD SWAP1 PUSH2 0x100 EXP SWAP1 DIV PUSH1 0xF SIGNEXTEND PUSH1 0x3 PUSH1 0x10 SWAP1 SLOAD SWAP1 PUSH2 0x100 EXP SWAP1 DIV PUSH1 0xF SIGNEXTEND PUSH2 0x1D0D JUMP JUMPDEST PUSH1 0x3 PUSH1 0x0 PUSH2 0x100 EXP DUP2 SLOAD DUP2 PUSH16 0xFFFFFFFFFFFFFFFFFFFFFFFFFFFFFFFF MUL NOT AND SWAP1 DUP4 PUSH1 0xF SIGNEXTEND PUSH16 0xFFFFFFFFFFFFFFFFFFFFFFFFFFFFFFFF AND MUL OR SWAP1 SSTORE POP PUSH2 0x10B8 PUSH1 0x1 PUSH1 0x0 DUP1 PUSH1 0x1 SWAP1 SLOAD SWAP1 PUSH2 0x100 EXP SWAP1 DIV PUSH1 0xFF AND PUSH1 0xFF AND PUSH1 0xFF AND DUP2 MSTORE PUSH1 0x20 ADD SWAP1 DUP2 MSTORE PUSH1 0x20 ADD PUSH1 0x0 KECCAK256 PUSH1 0x0 SWAP1 SLOAD SWAP1 PUSH2 0x100 EXP SWAP1 DIV PUSH1 0xF SIGNEXTEND DUP6 PUSH2 0x1E74 JUMP JUMPDEST PUSH1 0x1 PUSH1 0x0 DUP8 PUSH1 0xFF AND PUSH1 0xFF AND DUP2 MSTORE PUSH1 0x20 ADD SWAP1 DUP2 MSTORE PUSH1 0x20 ADD PUSH1 0x0 KECCAK256 PUSH1 0x0 PUSH2 0x100 EXP DUP2 SLOAD DUP2 PUSH16 0xFFFFFFFFFFFFFFFFFFFFFFFFFFFFFFFF MUL NOT AND SWAP1 DUP4 PUSH1 0xF SIGNEXTEND PUSH16 0xFFFFFFFFFFFFFFFFFFFFFFFFFFFFFFFF AND MUL OR SWAP1 SSTORE POP PUSH2 0x1177 PUSH1 0x2 PUSH1 0x0 DUP8 PUSH1 0xFF AND PUSH1 0xFF AND DUP2 MSTORE PUSH1 0x20 ADD SWAP1 DUP2 MSTORE PUSH1 0x20 ADD PUSH1 0x0 KECCAK256 PUSH1 0x0 CALLER PUSH20 0xFFFFFFFFFFFFFFFFFFFFFFFFFFFFFFFFFFFFFFFF AND PUSH20 0xFFFFFFFFFFFFFFFFFFFFFFFFFFFFFFFFFFFFFFFF AND DUP2 MSTORE PUSH1 0x20 ADD SWAP1 DUP2 MSTORE PUSH1 0x20 ADD PUSH1 0x0 KECCAK256 PUSH1 0x0 SWAP1 SLOAD SWAP1 PUSH2 0x100 EXP SWAP1 DIV PUSH1 0xF SIGNEXTEND DUP6 PUSH2 0x1E74 JUMP JUMPDEST PUSH1 0x2 PUSH1 0x0 DUP8 PUSH1 0xFF AND PUSH1 0xFF AND DUP2 MSTORE PUSH1 0x20 ADD SWAP1 DUP2 MSTORE PUSH1 0x20 ADD PUSH1 0x0 KECCAK256 PUSH1 0x0 CALLER PUSH20 0xFFFFFFFFFFFFFFFFFFFFFFFFFFFFFFFFFFFFFFFF AND PUSH20 0xFFFFFFFFFFFFFFFFFFFFFFFFFFFFFFFFFFFFFFFF AND DUP2 MSTORE PUSH1 0x20 ADD SWAP1 DUP2 MSTORE PUSH1 0x20 ADD PUSH1 0x0 KECCAK256 PUSH1 0x0 PUSH2 0x100 EXP DUP2 SLOAD DUP2 PUSH16 0xFFFFFFFFFFFFFFFFFFFFFFFFFFFFFFFF MUL NOT AND SWAP1 DUP4 PUSH1 0xF SIGNEXTEND PUSH16 0xFFFFFFFFFFFFFFFFFFFFFFFFFFFFFFFF AND MUL OR SWAP1 SSTORE POP PUSH1 0x0 PUSH1 0x1 SWAP1 POP JUMPDEST PUSH1 0x1 PUSH1 0x0 DUP1 SLOAD SWAP1 PUSH2 0x100 EXP SWAP1 DIV PUSH1 0xFF AND ADD PUSH1 0xFF AND DUP2 PUSH1 0xFF AND LT ISZERO PUSH2 0x128A JUMPI PUSH2 0x127B DUP3 PUSH2 0x1276 PUSH2 0x1271 PUSH1 0x1 PUSH1 0x0 DUP7 PUSH1 0xFF AND PUSH1 0xFF AND DUP2 MSTORE PUSH1 0x20 ADD SWAP1 DUP2 MSTORE PUSH1 0x20 ADD PUSH1 0x0 KECCAK256 PUSH1 0x0 SWAP1 SLOAD SWAP1 PUSH2 0x100 EXP SWAP1 DIV PUSH1 0xF SIGNEXTEND PUSH1 0x3 PUSH1 0x0 SWAP1 SLOAD SWAP1 PUSH2 0x100 EXP SWAP1 DIV PUSH1 0xF SIGNEXTEND PUSH2 0x1D78 JUMP JUMPDEST PUSH2 0x1DFB JUMP JUMPDEST PUSH2 0x1E74 JUMP JUMPDEST SWAP2 POP DUP1 DUP1 PUSH1 0x1 ADD SWAP2 POP POP PUSH2 0x120D JUMP JUMPDEST POP PUSH2 0x12AC PUSH1 0x3 PUSH1 0x0 SWAP1 SLOAD SWAP1 PUSH2 0x100 EXP SWAP1 DIV PUSH1 0xF SIGNEXTEND PUSH2 0x12A7 DUP4 PUSH2 0x1CD3 JUMP JUMPDEST PUSH2 0x1D0D JUMP JUMPDEST SWAP2 POP PUSH2 0x12C7 DUP3 PUSH1 0x4 PUSH1 0x0 SWAP1 SLOAD SWAP1 PUSH2 0x100 EXP SWAP1 DIV PUSH1 0xF SIGNEXTEND PUSH2 0x1EDB JUMP JUMPDEST SWAP3 POP DUP2 PUSH1 0x4 PUSH1 0x0 PUSH2 0x100 EXP DUP2 SLOAD DUP2 PUSH16 0xFFFFFFFFFFFFFFFFFFFFFFFFFFFFFFFF MUL NOT AND SWAP1 DUP4 PUSH1 0xF SIGNEXTEND PUSH16 0xFFFFFFFFFFFFFFFFFFFFFFFFFFFFFFFF AND MUL OR SWAP1 SSTORE POP POP POP JUMPDEST SWAP3 SWAP2 POP POP JUMP JUMPDEST PUSH1 0x0 DUP1 PUSH1 0x1 SWAP1 SLOAD SWAP1 PUSH2 0x100 EXP SWAP1 DIV PUSH1 0xFF AND SWAP1 POP SWAP1 JUMP JUMPDEST PUSH1 0x0 PUSH2 0x134C PUSH2 0x1343 PUSH2 0x1336 DUP6 DUP6 PUSH2 0x135A JUMP JUMPDEST PUSH2 0x133E PUSH2 0x61D JUMP JUMPDEST PUSH2 0x1EDB JUMP JUMPDEST PUSH3 0xF4240 PUSH2 0x1F42 JUMP JUMPDEST SWAP1 POP SWAP3 SWAP2 POP POP JUMP JUMPDEST PUSH1 0x6 SLOAD DUP2 JUMP JUMPDEST PUSH1 0x0 DUP1 PUSH1 0x0 PUSH2 0x1390 PUSH2 0x137B PUSH1 0x4 PUSH1 0x10 SWAP1 SLOAD SWAP1 PUSH2 0x100 EXP SWAP1 DIV PUSH1 0xF SIGNEXTEND DUP7 PUSH2 0x1E74 JUMP JUMPDEST PUSH1 0x3 PUSH1 0x10 SWAP1 SLOAD SWAP1 PUSH2 0x100 EXP SWAP1 DIV PUSH1 0xF SIGNEXTEND PUSH2 0x1D0D JUMP JUMPDEST SWAP1 POP PUSH1 0x0 PUSH1 0x1 SWAP1 POP JUMPDEST PUSH1 0x1 PUSH1 0x0 DUP1 SLOAD SWAP1 PUSH2 0x100 EXP SWAP1 DIV PUSH1 0xFF AND ADD PUSH1 0xFF AND DUP2 PUSH1 0xFF AND LT ISZERO PUSH2 0x1466 JUMPI DUP6 PUSH1 0xFF AND DUP2 PUSH1 0xFF AND EQ PUSH2 0x140C JUMPI PUSH2 0x1405 DUP4 PUSH2 0x1400 PUSH2 0x13FB PUSH1 0x1 PUSH1 0x0 DUP7 PUSH1 0xFF AND PUSH1 0xFF AND DUP2 MSTORE PUSH1 0x20 ADD SWAP1 DUP2 MSTORE PUSH1 0x20 ADD PUSH1 0x0 KECCAK256 PUSH1 0x0 SWAP1 SLOAD SWAP1 PUSH2 0x100 EXP SWAP1 DIV PUSH1 0xF SIGNEXTEND DUP7 PUSH2 0x1D78 JUMP JUMPDEST PUSH2 0x1DFB JUMP JUMPDEST PUSH2 0x1E74 JUMP JUMPDEST SWAP3 POP PUSH2 0x1459 JUMP JUMPDEST PUSH2 0x1456 DUP4 PUSH2 0x1451 PUSH2 0x144C PUSH2 0x1446 PUSH1 0x1 PUSH1 0x0 DUP13 PUSH1 0xFF AND PUSH1 0xFF AND DUP2 MSTORE PUSH1 0x20 ADD SWAP1 DUP2 MSTORE PUSH1 0x20 ADD PUSH1 0x0 KECCAK256 PUSH1 0x0 SWAP1 SLOAD SWAP1 PUSH2 0x100 EXP SWAP1 DIV PUSH1 0xF SIGNEXTEND DUP11 PUSH2 0x1E74 JUMP JUMPDEST DUP7 PUSH2 0x1D78 JUMP JUMPDEST PUSH2 0x1DFB JUMP JUMPDEST PUSH2 0x1E74 JUMP JUMPDEST SWAP3 POP JUMPDEST DUP1 DUP1 PUSH1 0x1 ADD SWAP2 POP POP PUSH2 0x1399 JUMP JUMPDEST POP PUSH2 0x1479 DUP2 PUSH2 0x1474 DUP5 PUSH2 0x1CD3 JUMP JUMPDEST PUSH2 0x1D0D JUMP JUMPDEST SWAP3 POP POP POP SWAP3 SWAP2 POP POP JUMP JUMPDEST PUSH1 0x7 SLOAD DUP2 JUMP JUMPDEST PUSH1 0x3 PUSH1 0x4 DUP2 GT ISZERO PUSH2 0x1496 JUMPI INVALID JUMPDEST PUSH1 0xC PUSH1 0x14 SWAP1 SLOAD SWAP1 PUSH2 0x100 EXP SWAP1 DIV PUSH1 0xFF AND PUSH1 0x4 DUP2 GT ISZERO PUSH2 0x14B1 JUMPI INVALID JUMPDEST EQ ISZERO PUSH2 0x1525 JUMPI PUSH1 0x40 MLOAD PUSH32 0x8C379A000000000000000000000000000000000000000000000000000000000 DUP2 MSTORE PUSH1 0x4 ADD DUP1 DUP1 PUSH1 0x20 ADD DUP3 DUP2 SUB DUP3 MSTORE PUSH1 0x10 DUP2 MSTORE PUSH1 0x20 ADD DUP1 PUSH32 0x416C726561647920646973707574656400000000000000000000000000000000 DUP2 MSTORE POP PUSH1 0x20 ADD SWAP2 POP POP PUSH1 0x40 MLOAD DUP1 SWAP2 SUB SWAP1 REVERT JUMPDEST PUSH1 0x2 PUSH1 0x4 DUP2 GT ISZERO PUSH2 0x1532 JUMPI INVALID JUMPDEST PUSH1 0xC PUSH1 0x14 SWAP1 SLOAD SWAP1 PUSH2 0x100 EXP SWAP1 DIV PUSH1 0xFF AND PUSH1 0x4 DUP2 GT ISZERO PUSH2 0x154D JUMPI INVALID JUMPDEST EQ DUP1 ISZERO PUSH2 0x155B JUMPI POP PUSH1 0x5 SLOAD TIMESTAMP LT JUMPDEST DUP1 PUSH2 0x159D JUMPI POP PUSH1 0x1 PUSH1 0x4 DUP2 GT ISZERO PUSH2 0x156E JUMPI INVALID JUMPDEST PUSH1 0xC PUSH1 0x14 SWAP1 SLOAD SWAP1 PUSH2 0x100 EXP SWAP1 DIV PUSH1 0xFF AND PUSH1 0x4 DUP2 GT ISZERO PUSH2 0x1589 JUMPI INVALID JUMPDEST EQ DUP1 ISZERO PUSH2 0x159C JUMPI POP PUSH3 0x15180 PUSH1 0x7 SLOAD ADD TIMESTAMP LT JUMPDEST JUMPDEST DUP1 PUSH2 0x15EC JUMPI POP PUSH1 0x0 PUSH1 0x4 DUP2 GT ISZERO PUSH2 0x15B0 JUMPI INVALID JUMPDEST PUSH1 0xC PUSH1 0x14 SWAP1 SLOAD SWAP1 PUSH2 0x100 EXP SWAP1 DIV PUSH1 0xFF AND PUSH1 0x4 DUP2 GT ISZERO PUSH2 0x15CB JUMPI INVALID JUMPDEST EQ DUP1 ISZERO PUSH2 0x15D9 JUMPI POP PUSH1 0x6 SLOAD TIMESTAMP GT JUMPDEST DUP1 ISZERO PUSH2 0x15EB JUMPI POP PUSH3 0x15180 PUSH1 0x7 SLOAD ADD TIMESTAMP LT JUMPDEST JUMPDEST PUSH2 0x165E JUMPI PUSH1 0x40 MLOAD PUSH32 0x8C379A000000000000000000000000000000000000000000000000000000000 DUP2 MSTORE PUSH1 0x4 ADD DUP1 DUP1 PUSH1 0x20 ADD DUP3 DUP2 SUB DUP3 MSTORE PUSH1 0xD DUP2 MSTORE PUSH1 0x20 ADD DUP1 PUSH32 0x43414E2754204449535055544500000000000000000000000000000000000000 DUP2 MSTORE POP PUSH1 0x20 ADD SWAP2 POP POP PUSH1 0x40 MLOAD DUP1 SWAP2 SUB SWAP1 REVERT JUMPDEST CALLER PUSH1 0xA PUSH1 0x0 PUSH2 0x100 EXP DUP2 SLOAD DUP2 PUSH20 0xFFFFFFFFFFFFFFFFFFFFFFFFFFFFFFFFFFFFFFFF MUL NOT AND SWAP1 DUP4 PUSH20 0xFFFFFFFFFFFFFFFFFFFFFFFFFFFFFFFFFFFFFFFF AND MUL OR SWAP1 SSTORE POP PUSH1 0x3 PUSH1 0xC PUSH1 0x14 PUSH2 0x100 EXP DUP2 SLOAD DUP2 PUSH1 0xFF MUL NOT AND SWAP1 DUP4 PUSH1 0x4 DUP2 GT ISZERO PUSH2 0x16BE JUMPI INVALID JUMPDEST MUL OR SWAP1 SSTORE POP PUSH1 0x0 PUSH1 0xC PUSH1 0x0 SWAP1 SLOAD SWAP1 PUSH2 0x100 EXP SWAP1 DIV PUSH20 0xFFFFFFFFFFFFFFFFFFFFFFFFFFFFFFFFFFFFFFFF AND PUSH20 0xFFFFFFFFFFFFFFFFFFFFFFFFFFFFFFFFFFFFFFFF AND PUSH4 0xF7434EA9 PUSH1 0x40 MLOAD DUP2 PUSH4 0xFFFFFFFF AND PUSH1 0xE0 SHL DUP2 MSTORE PUSH1 0x4 ADD DUP1 DUP1 PUSH1 0x20 ADD DUP3 DUP2 SUB DUP3 MSTORE PUSH1 0x0 DUP2 MSTORE PUSH1 0x20 ADD PUSH1 0x20 ADD SWAP2 POP POP PUSH1 0x20 PUSH1 0x40 MLOAD DUP1 DUP4 SUB DUP2 DUP7 DUP1 EXTCODESIZE ISZERO DUP1 ISZERO PUSH2 0x1744 JUMPI PUSH1 0x0 DUP1 REVERT JUMPDEST POP GAS STATICCALL ISZERO DUP1 ISZERO PUSH2 0x1758 JUMPI RETURNDATASIZE PUSH1 0x0 DUP1 RETURNDATACOPY RETURNDATASIZE PUSH1 0x0 REVERT JUMPDEST POP POP POP POP PUSH1 0x40 MLOAD RETURNDATASIZE PUSH1 0x20 DUP2 LT ISZERO PUSH2 0x176E JUMPI PUSH1 0x0 DUP1 REVERT JUMPDEST DUP2 ADD SWAP1 DUP1 DUP1 MLOAD SWAP1 PUSH1 0x20 ADD SWAP1 SWAP3 SWAP2 SWAP1 POP POP POP SWAP1 POP DUP1 CALLVALUE LT ISZERO PUSH2 0x178E JUMPI PUSH1 0x0 DUP1 REVERT JUMPDEST PUSH1 0xC PUSH1 0x0 SWAP1 SLOAD SWAP1 PUSH2 0x100 EXP SWAP1 DIV PUSH20 0xFFFFFFFFFFFFFFFFFFFFFFFFFFFFFFFFFFFFFFFF AND PUSH20 0xFFFFFFFFFFFFFFFFFFFFFFFFFFFFFFFFFFFFFFFF AND PUSH4 0xC13517E1 DUP3 PUSH1 0x0 DUP1 SLOAD SWAP1 PUSH2 0x100 EXP SWAP1 DIV PUSH1 0xFF AND PUSH1 0x40 MLOAD DUP4 PUSH4 0xFFFFFFFF AND PUSH1 0xE0 SHL DUP2 MSTORE PUSH1 0x4 ADD DUP1 DUP3 PUSH1 0xFF AND DUP2 MSTORE PUSH1 0x20 ADD DUP1 PUSH1 0x20 ADD DUP3 DUP2 SUB DUP3 MSTORE PUSH1 0x0 DUP2 MSTORE PUSH1 0x20 ADD PUSH1 0x20 ADD SWAP3 POP POP POP PUSH1 0x20 PUSH1 0x40 MLOAD DUP1 DUP4 SUB DUP2 DUP6 DUP9 DUP1 EXTCODESIZE ISZERO DUP1 ISZERO PUSH2 0x1827 JUMPI PUSH1 0x0 DUP1 REVERT JUMPDEST POP GAS CALL ISZERO DUP1 ISZERO PUSH2 0x183B JUMPI RETURNDATASIZE PUSH1 0x0 DUP1 RETURNDATACOPY RETURNDATASIZE PUSH1 0x0 REVERT JUMPDEST POP POP POP POP POP PUSH1 0x40 MLOAD RETURNDATASIZE PUSH1 0x20 DUP2 LT ISZERO PUSH2 0x1852 JUMPI PUSH1 0x0 DUP1 REVERT JUMPDEST DUP2 ADD SWAP1 DUP1 DUP1 MLOAD SWAP1 PUSH1 0x20 ADD SWAP1 SWAP3 SWAP2 SWAP1 POP POP POP PUSH1 0x8 DUP2 SWAP1 SSTORE POP PUSH1 0x8 SLOAD PUSH1 0xC PUSH1 0x0 SWAP1 SLOAD SWAP1 PUSH2 0x100 EXP SWAP1 DIV PUSH20 0xFFFFFFFFFFFFFFFFFFFFFFFFFFFFFFFFFFFFFFFF AND PUSH20 0xFFFFFFFFFFFFFFFFFFFFFFFFFFFFFFFFFFFFFFFF AND PUSH32 0x74BAAB670A4015AB2F1B467C5252A96141A2573F2908E58A92081E80D3CFDE3D PUSH1 0x0 DUP1 PUSH1 0x40 MLOAD DUP1 DUP4 DUP2 MSTORE PUSH1 0x20 ADD DUP3 DUP2 MSTORE PUSH1 0x20 ADD SWAP3 POP POP POP PUSH1 0x40 MLOAD DUP1 SWAP2 SUB SWAP1 LOG3 POP JUMP JUMPDEST PUSH1 0x0 PUSH1 0x7 SLOAD TIMESTAMP GT PUSH2 0x1961 JUMPI PUSH1 0x40 MLOAD PUSH32 0x8C379A000000000000000000000000000000000000000000000000000000000 DUP2 MSTORE PUSH1 0x4 ADD DUP1 DUP1 PUSH1 0x20 ADD DUP3 DUP2 SUB DUP3 MSTORE PUSH1 0x12 DUP2 MSTORE PUSH1 0x20 ADD DUP1 PUSH32 0x546F6F206561726C7920746F20636C61696D0000000000000000000000000000 DUP2 MSTORE POP PUSH1 0x20 ADD SWAP2 POP POP PUSH1 0x40 MLOAD DUP1 SWAP2 SUB SWAP1 REVERT JUMPDEST PUSH1 0x4 DUP1 DUP2 GT ISZERO PUSH2 0x196D JUMPI INVALID JUMPDEST PUSH1 0xC PUSH1 0x14 SWAP1 SLOAD SWAP1 PUSH2 0x100 EXP SWAP1 DIV PUSH1 0xFF AND PUSH1 0x4 DUP2 GT ISZERO PUSH2 0x1988 JUMPI INVALID JUMPDEST EQ DUP1 PUSH2 0x19C6 JUMPI POP PUSH1 0x2 PUSH1 0x4 DUP2 GT ISZERO PUSH2 0x199C JUMPI INVALID JUMPDEST PUSH1 0xC PUSH1 0x14 SWAP1 SLOAD SWAP1 PUSH2 0x100 EXP SWAP1 DIV PUSH1 0xFF AND PUSH1 0x4 DUP2 GT ISZERO PUSH2 0x19B7 JUMPI INVALID JUMPDEST EQ DUP1 ISZERO PUSH2 0x19C5 JUMPI POP PUSH1 0x5 SLOAD TIMESTAMP GT JUMPDEST JUMPDEST PUSH2 0x1A38 JUMPI PUSH1 0x40 MLOAD PUSH32 0x8C379A000000000000000000000000000000000000000000000000000000000 DUP2 MSTORE PUSH1 0x4 ADD DUP1 DUP1 PUSH1 0x20 ADD DUP3 DUP2 SUB DUP3 MSTORE PUSH1 0x13 DUP2 MSTORE PUSH1 0x20 ADD DUP1 PUSH32 0x57616974696E6720666F722061707065616C7300000000000000000000000000 DUP2 MSTORE POP PUSH1 0x20 ADD SWAP2 POP POP PUSH1 0x40 MLOAD DUP1 SWAP2 SUB SWAP1 REVERT JUMPDEST PUSH1 0x0 PUSH1 0x2 PUSH1 0x0 DUP1 PUSH1 0x1 SWAP1 SLOAD SWAP1 PUSH2 0x100 EXP SWAP1 DIV PUSH1 0xFF AND PUSH1 0xFF AND PUSH1 0xFF AND DUP2 MSTORE PUSH1 0x20 ADD SWAP1 DUP2 MSTORE PUSH1 0x20 ADD PUSH1 0x0 KECCAK256 PUSH1 0x0 CALLER PUSH20 0xFFFFFFFFFFFFFFFFFFFFFFFFFFFFFFFFFFFFFFFF AND PUSH20 0xFFFFFFFFFFFFFFFFFFFFFFFFFFFFFFFFFFFFFFFF AND DUP2 MSTORE PUSH1 0x20 ADD SWAP1 DUP2 MSTORE PUSH1 0x20 ADD PUSH1 0x0 KECCAK256 PUSH1 0x0 SWAP1 SLOAD SWAP1 PUSH2 0x100 EXP SWAP1 DIV PUSH1 0xF SIGNEXTEND SWAP1 POP PUSH1 0x0 PUSH1 0x1 PUSH1 0x0 DUP1 PUSH1 0x1 SWAP1 SLOAD SWAP1 PUSH2 0x100 EXP SWAP1 DIV PUSH1 0xFF AND PUSH1 0xFF AND PUSH1 0xFF AND DUP2 MSTORE PUSH1 0x20 ADD SWAP1 DUP2 MSTORE PUSH1 0x20 ADD PUSH1 0x0 KECCAK256 PUSH1 0x0 PUSH2 0x100 EXP DUP2 SLOAD DUP2 PUSH16 0xFFFFFFFFFFFFFFFFFFFFFFFFFFFFFFFF MUL NOT AND SWAP1 DUP4 PUSH1 0xF SIGNEXTEND PUSH16 0xFFFFFFFFFFFFFFFFFFFFFFFFFFFFFFFF AND MUL OR SWAP1 SSTORE POP PUSH1 0x0 PUSH1 0x2 PUSH1 0x0 DUP1 PUSH1 0x1 SWAP1 SLOAD SWAP1 PUSH2 0x100 EXP SWAP1 DIV PUSH1 0xFF AND PUSH1 0xFF AND PUSH1 0xFF AND DUP2 MSTORE PUSH1 0x20 ADD SWAP1 DUP2 MSTORE PUSH1 0x20 ADD PUSH1 0x0 KECCAK256 PUSH1 0x0 CALLER PUSH20 0xFFFFFFFFFFFFFFFFFFFFFFFFFFFFFFFFFFFFFFFF AND PUSH20 0xFFFFFFFFFFFFFFFFFFFFFFFFFFFFFFFFFFFFFFFF AND DUP2 MSTORE PUSH1 0x20 ADD SWAP1 DUP2 MSTORE PUSH1 0x20 ADD PUSH1 0x0 KECCAK256 PUSH1 0x0 PUSH2 0x100 EXP DUP2 SLOAD DUP2 PUSH16 0xFFFFFFFFFFFFFFFFFFFFFFFFFFFFFFFF MUL NOT AND SWAP1 DUP4 PUSH1 0xF SIGNEXTEND PUSH16 0xFFFFFFFFFFFFFFFFFFFFFFFFFFFFFFFF AND MUL OR SWAP1 SSTORE POP PUSH2 0x1BC8 PUSH1 0x4 PUSH1 0x10 SWAP1 SLOAD SWAP1 PUSH2 0x100 EXP SWAP1 DIV PUSH1 0xF SIGNEXTEND DUP3 PUSH2 0x1EDB JUMP JUMPDEST PUSH1 0x4 PUSH1 0x10 PUSH2 0x100 EXP DUP2 SLOAD DUP2 PUSH16 0xFFFFFFFFFFFFFFFFFFFFFFFFFFFFFFFF MUL NOT AND SWAP1 DUP4 PUSH1 0xF SIGNEXTEND PUSH16 0xFFFFFFFFFFFFFFFFFFFFFFFFFFFFFFFF AND MUL OR SWAP1 SSTORE POP PUSH1 0x0 PUSH2 0x1C17 DUP3 PUSH8 0xDE0B6B3A7640000 PUSH2 0x1F42 JUMP JUMPDEST SWAP1 POP DUP1 SWAP3 POP POP POP SWAP1 JUMP JUMPDEST PUSH1 0x0 PUSH2 0x1C31 PUSH3 0xF4240 DUP4 MUL PUSH2 0x1FFD JUMP JUMPDEST PUSH8 0xFFFFFFFFFFFFFFFF AND SWAP1 POP SWAP2 SWAP1 POP JUMP JUMPDEST PUSH1 0x0 PUSH1 0x2 PUSH1 0x0 DUP5 PUSH1 0xFF AND PUSH1 0xFF AND DUP2 MSTORE PUSH1 0x20 ADD SWAP1 DUP2 MSTORE PUSH1 0x20 ADD PUSH1 0x0 KECCAK256 PUSH1 0x0 DUP4 PUSH20 0xFFFFFFFFFFFFFFFFFFFFFFFFFFFFFFFFFFFFFFFF AND PUSH20 0xFFFFFFFFFFFFFFFFFFFFFFFFFFFFFFFFFFFFFFFF AND DUP2 MSTORE PUSH1 0x20 ADD SWAP1 DUP2 MSTORE PUSH1 0x20 ADD PUSH1 0x0 KECCAK256 PUSH1 0x0 SWAP1 SLOAD SWAP1 PUSH2 0x100 EXP SWAP1 DIV PUSH1 0xF SIGNEXTEND SWAP1 POP SWAP3 SWAP2 POP POP JUMP JUMPDEST PUSH1 0x0 PUSH8 0x7FFFFFFFFFFFFFFF DUP3 GT ISZERO PUSH2 0x1CC7 JUMPI PUSH1 0x0 DUP1 REVERT JUMPDEST PUSH1 0x40 DUP3 SWAP1 SHL SWAP1 POP SWAP2 SWAP1 POP JUMP JUMPDEST PUSH1 0x0 DUP1 DUP3 PUSH1 0xF SIGNEXTEND SGT PUSH2 0x1CE4 JUMPI PUSH1 0x0 DUP1 REVERT JUMPDEST PUSH1 0x80 PUSH16 0xB17217F7D1CF79ABC9E3B39803F2F6AF PUSH2 0x1D00 DUP5 PUSH2 0x201E JUMP JUMPDEST PUSH1 0xF SIGNEXTEND MUL SWAP1 SHR SWAP1 POP SWAP2 SWAP1 POP JUMP JUMPDEST PUSH1 0x0 DUP1 PUSH1 0x40 DUP4 PUSH1 0xF SIGNEXTEND DUP6 PUSH1 0xF SIGNEXTEND MUL SWAP1 SAR SWAP1 POP PUSH32 0xFFFFFFFFFFFFFFFFFFFFFFFFFFFFFFFF80000000000000000000000000000000 PUSH1 0xF SIGNEXTEND DUP2 SLT ISZERO DUP1 ISZERO PUSH2 0x1D65 JUMPI POP PUSH16 0x7FFFFFFFFFFFFFFFFFFFFFFFFFFFFFFF PUSH1 0xF SIGNEXTEND DUP2 SGT ISZERO JUMPDEST PUSH2 0x1D6E JUMPI PUSH1 0x0 DUP1 REVERT JUMPDEST DUP1 SWAP2 POP POP SWAP3 SWAP2 POP POP JUMP JUMPDEST PUSH1 0x0 DUP1 DUP3 PUSH1 0xF SIGNEXTEND EQ ISZERO PUSH2 0x1D8A JUMPI PUSH1 0x0 DUP1 REVERT JUMPDEST PUSH1 0x0 DUP3 PUSH1 0xF SIGNEXTEND PUSH1 0x40 DUP6 PUSH1 0xF SIGNEXTEND SWAP1 SHL DUP2 PUSH2 0x1D9F JUMPI INVALID JUMPDEST SDIV SWAP1 POP PUSH32 0xFFFFFFFFFFFFFFFFFFFFFFFFFFFFFFFF80000000000000000000000000000000 PUSH1 0xF SIGNEXTEND DUP2 SLT ISZERO DUP1 ISZERO PUSH2 0x1DE8 JUMPI POP PUSH16 0x7FFFFFFFFFFFFFFFFFFFFFFFFFFFFFFF PUSH1 0xF SIGNEXTEND DUP2 SGT ISZERO JUMPDEST PUSH2 0x1DF1 JUMPI PUSH1 0x0 DUP1 REVERT JUMPDEST DUP1 SWAP2 POP POP SWAP3 SWAP2 POP POP JUMP JUMPDEST PUSH1 0x0 PUSH9 0x400000000000000000 DUP3 PUSH1 0xF SIGNEXTEND SLT PUSH2 0x1E15 JUMPI PUSH1 0x0 DUP1 REVERT JUMPDEST PUSH32 0xFFFFFFFFFFFFFFFFFFFFFFFFFFFFFFFFFFFFFFFFFFFFFFC00000000000000000 DUP3 PUSH1 0xF SIGNEXTEND SLT ISZERO PUSH2 0x1E49 JUMPI PUSH1 0x0 SWAP1 POP PUSH2 0x1E6F JUMP JUMPDEST PUSH2 0x1E6C PUSH1 0x80 PUSH17 0x171547652B82FE1777D0FFDA0D23A7D12 DUP5 PUSH1 0xF SIGNEXTEND MUL SWAP1 SAR PUSH2 0x2142 JUMP JUMPDEST SWAP1 POP JUMPDEST SWAP2 SWAP1 POP JUMP JUMPDEST PUSH1 0x0 DUP1 DUP3 PUSH1 0xF SIGNEXTEND DUP5 PUSH1 0xF SIGNEXTEND ADD SWAP1 POP PUSH32 0xFFFFFFFFFFFFFFFFFFFFFFFFFFFFFFFF80000000000000000000000000000000 PUSH1 0xF SIGNEXTEND DUP2 SLT ISZERO DUP1 ISZERO PUSH2 0x1EC8 JUMPI POP PUSH16 0x7FFFFFFFFFFFFFFFFFFFFFFFFFFFFFFF PUSH1 0xF SIGNEXTEND DUP2 SGT ISZERO JUMPDEST PUSH2 0x1ED1 JUMPI PUSH1 0x0 DUP1 REVERT JUMPDEST DUP1 SWAP2 POP POP SWAP3 SWAP2 POP POP JUMP JUMPDEST PUSH1 0x0 DUP1 DUP3 PUSH1 0xF SIGNEXTEND DUP5 PUSH1 0xF SIGNEXTEND SUB SWAP1 POP PUSH32 0xFFFFFFFFFFFFFFFFFFFFFFFFFFFFFFFF80000000000000000000000000000000 PUSH1 0xF SIGNEXTEND DUP2 SLT ISZERO DUP1 ISZERO PUSH2 0x1F2F JUMPI POP PUSH16 0x7FFFFFFFFFFFFFFFFFFFFFFFFFFFFFFF PUSH1 0xF SIGNEXTEND DUP2 SGT ISZERO JUMPDEST PUSH2 0x1F38 JUMPI PUSH1 0x0 DUP1 REVERT JUMPDEST DUP1 SWAP2 POP POP SWAP3 SWAP2 POP POP JUMP JUMPDEST PUSH1 0x0 DUP1 DUP3 EQ ISZERO PUSH2 0x1F55 JUMPI PUSH1 0x0 SWAP1 POP PUSH2 0x1FF7 JUMP JUMPDEST PUSH1 0x0 DUP4 PUSH1 0xF SIGNEXTEND SLT ISZERO PUSH2 0x1F66 JUMPI PUSH1 0x0 DUP1 REVERT JUMPDEST PUSH1 0x0 PUSH1 0x40 PUSH16 0xFFFFFFFFFFFFFFFFFFFFFFFFFFFFFFFF DUP5 AND DUP6 PUSH1 0xF SIGNEXTEND MUL SWAP1 SHR SWAP1 POP PUSH1 0x0 PUSH1 0x80 DUP5 SWAP1 SHR DUP6 PUSH1 0xF SIGNEXTEND MUL SWAP1 POP PUSH24 0xFFFFFFFFFFFFFFFFFFFFFFFFFFFFFFFFFFFFFFFFFFFFFFFF DUP2 GT ISZERO PUSH2 0x1FB9 JUMPI PUSH1 0x0 DUP1 REVERT JUMPDEST PUSH1 0x40 DUP2 SWAP1 SHL SWAP1 POP DUP2 PUSH32 0xFFFFFFFFFFFFFFFFFFFFFFFFFFFFFFFFFFFFFFFFFFFFFFFFFFFFFFFFFFFFFFFF SUB DUP2 GT ISZERO PUSH2 0x1FEF JUMPI PUSH1 0x0 DUP1 REVERT JUMPDEST DUP2 DUP2 ADD SWAP3 POP POP POP JUMPDEST SWAP3 SWAP2 POP POP JUMP JUMPDEST PUSH1 0x0 DUP1 DUP3 PUSH1 0xF SIGNEXTEND SLT ISZERO PUSH2 0x200F JUMPI PUSH1 0x0 DUP1 REVERT JUMPDEST PUSH1 0x40 DUP3 PUSH1 0xF SIGNEXTEND SWAP1 SAR SWAP1 POP SWAP2 SWAP1 POP JUMP JUMPDEST PUSH1 0x0 DUP1 DUP3 PUSH1 0xF SIGNEXTEND SGT PUSH2 0x202F JUMPI PUSH1 0x0 DUP1 REVERT JUMPDEST PUSH1 0x0 DUP1 DUP4 PUSH1 0xF SIGNEXTEND SWAP1 POP PUSH9 0x10000000000000000 DUP2 SLT PUSH2 0x2056 JUMPI PUSH1 0x40 DUP2 SWAP1 SAR SWAP1 POP PUSH1 0x40 DUP3 ADD SWAP2 POP JUMPDEST PUSH5 0x100000000 DUP2 SLT PUSH2 0x2070 JUMPI PUSH1 0x20 DUP2 SWAP1 SAR SWAP1 POP PUSH1 0x20 DUP3 ADD SWAP2 POP JUMPDEST PUSH3 0x10000 DUP2 SLT PUSH2 0x2088 JUMPI PUSH1 0x10 DUP2 SWAP1 SAR SWAP1 POP PUSH1 0x10 DUP3 ADD SWAP2 POP JUMPDEST PUSH2 0x100 DUP2 SLT PUSH2 0x209F JUMPI PUSH1 0x8 DUP2 SWAP1 SAR SWAP1 POP PUSH1 0x8 DUP3 ADD SWAP2 POP JUMPDEST PUSH1 0x10 DUP2 SLT PUSH2 0x20B5 JUMPI PUSH1 0x4 DUP2 SWAP1 SAR SWAP1 POP PUSH1 0x4 DUP3 ADD SWAP2 POP JUMPDEST PUSH1 0x4 DUP2 SLT PUSH2 0x20CB JUMPI PUSH1 0x2 DUP2 SWAP1 SAR SWAP1 POP PUSH1 0x2 DUP3 ADD SWAP2 POP JUMPDEST PUSH1 0x2 DUP2 SLT PUSH2 0x20DA JUMPI PUSH1 0x1 DUP3 ADD SWAP2 POP JUMPDEST PUSH1 0x0 PUSH1 0x40 DUP1 DUP5 SUB SWAP1 SHL SWAP1 POP PUSH1 0x0 DUP4 PUSH1 0x7F SUB DUP7 PUSH1 0xF SIGNEXTEND SWAP1 SHL SWAP1 POP PUSH1 0x0 PUSH8 0x8000000000000000 SWAP1 POP JUMPDEST PUSH1 0x0 DUP2 SGT ISZERO PUSH2 0x2135 JUMPI DUP2 DUP3 MUL SWAP2 POP PUSH1 0x0 PUSH1 0xFF DUP4 SWAP1 SHR SWAP1 POP DUP1 PUSH1 0x7F ADD DUP4 SWAP1 SHR SWAP3 POP DUP1 DUP3 MUL DUP5 ADD SWAP4 POP POP PUSH1 0x1 DUP2 SWAP1 SAR SWAP1 POP PUSH2 0x2101 JUMP JUMPDEST POP DUP2 SWAP5 POP POP POP POP POP SWAP2 SWAP1 POP JUMP JUMPDEST PUSH1 0x0 PUSH9 0x400000000000000000 DUP3 PUSH1 0xF SIGNEXTEND SLT PUSH2 0x215C JUMPI PUSH1 0x0 DUP1 REVERT JUMPDEST PUSH32 0xFFFFFFFFFFFFFFFFFFFFFFFFFFFFFFFFFFFFFFFFFFFFFFC00000000000000000 DUP3 PUSH1 0xF SIGNEXTEND SLT ISZERO PUSH2 0x2190 JUMPI PUSH1 0x0 SWAP1 POP PUSH2 0x2D3D JUMP JUMPDEST PUSH1 0x0 PUSH16 0x80000000000000000000000000000000 SWAP1 POP PUSH1 0x0 PUSH8 0x8000000000000000 DUP5 AND PUSH1 0xF SIGNEXTEND SGT ISZERO PUSH2 0x21D6 JUMPI PUSH1 0x80 PUSH17 0x16A09E667F3BCC908B2FB1366EA957D3E DUP3 MUL SWAP1 SHR SWAP1 POP JUMPDEST PUSH1 0x0 PUSH8 0x4000000000000000 DUP5 AND PUSH1 0xF SIGNEXTEND SGT ISZERO PUSH2 0x2207 JUMPI PUSH1 0x80 PUSH17 0x1306FE0A31B7152DE8D5A46305C85EDEC DUP3 MUL SWAP1 SHR SWAP1 POP JUMPDEST PUSH1 0x0 PUSH8 0x2000000000000000 DUP5 AND PUSH1 0xF SIGNEXTEND SGT ISZERO PUSH2 0x2238 JUMPI PUSH1 0x80 PUSH17 0x1172B83C7D517ADCDF7C8C50EB14A791F DUP3 MUL SWAP1 SHR SWAP1 POP JUMPDEST PUSH1 0x0 PUSH8 0x1000000000000000 DUP5 AND PUSH1 0xF SIGNEXTEND SGT ISZERO PUSH2 0x2269 JUMPI PUSH1 0x80 PUSH17 0x10B5586CF9890F6298B92B71842A98363 DUP3 MUL SWAP1 SHR SWAP1 POP JUMPDEST PUSH1 0x0 PUSH8 0x800000000000000 DUP5 AND PUSH1 0xF SIGNEXTEND SGT ISZERO PUSH2 0x229A JUMPI PUSH1 0x80 PUSH17 0x1059B0D31585743AE7C548EB68CA417FD DUP3 MUL SWAP1 SHR SWAP1 POP JUMPDEST PUSH1 0x0 PUSH8 0x400000000000000 DUP5 AND PUSH1 0xF SIGNEXTEND SGT ISZERO PUSH2 0x22CB JUMPI PUSH1 0x80 PUSH17 0x102C9A3E778060EE6F7CACA4F7A29BDE8 DUP3 MUL SWAP1 SHR SWAP1 POP JUMPDEST PUSH1 0x0 PUSH8 0x200000000000000 DUP5 AND PUSH1 0xF SIGNEXTEND SGT ISZERO PUSH2 0x22FC JUMPI PUSH1 0x80 PUSH17 0x10163DA9FB33356D84A66AE336DCDFA3F DUP3 MUL SWAP1 SHR SWAP1 POP JUMPDEST PUSH1 0x0 PUSH8 0x100000000000000 DUP5 AND PUSH1 0xF SIGNEXTEND SGT ISZERO PUSH2 0x232D JUMPI PUSH1 0x80 PUSH17 0x100B1AFA5ABCBED6129AB13EC11DC9543 DUP3 MUL SWAP1 SHR SWAP1 POP JUMPDEST PUSH1 0x0 PUSH7 0x80000000000000 DUP5 AND PUSH1 0xF SIGNEXTEND SGT ISZERO PUSH2 0x235D JUMPI PUSH1 0x80 PUSH17 0x10058C86DA1C09EA1FF19D294CF2F679B DUP3 MUL SWAP1 SHR SWAP1 POP JUMPDEST PUSH1 0x0 PUSH7 0x40000000000000 DUP5 AND PUSH1 0xF SIGNEXTEND SGT ISZERO PUSH2 0x238D JUMPI PUSH1 0x80 PUSH17 0x1002C605E2E8CEC506D21BFC89A23A00F DUP3 MUL SWAP1 SHR SWAP1 POP JUMPDEST PUSH1 0x0 PUSH7 0x20000000000000 DUP5 AND PUSH1 0xF SIGNEXTEND SGT ISZERO PUSH2 0x23BD JUMPI PUSH1 0x80 PUSH17 0x100162F3904051FA128BCA9C55C31E5DF DUP3 MUL SWAP1 SHR SWAP1 POP JUMPDEST PUSH1 0x0 PUSH7 0x10000000000000 DUP5 AND PUSH1 0xF SIGNEXTEND SGT ISZERO PUSH2 0x23ED JUMPI PUSH1 0x80 PUSH17 0x1000B175EFFDC76BA38E31671CA939725 DUP3 MUL SWAP1 SHR SWAP1 POP JUMPDEST PUSH1 0x0 PUSH7 0x8000000000000 DUP5 AND PUSH1 0xF SIGNEXTEND SGT ISZERO PUSH2 0x241D JUMPI PUSH1 0x80 PUSH17 0x100058BA01FB9F96D6CACD4B180917C3D DUP3 MUL SWAP1 SHR SWAP1 POP JUMPDEST PUSH1 0x0 PUSH7 0x4000000000000 DUP5 AND PUSH1 0xF SIGNEXTEND SGT ISZERO PUSH2 0x244D JUMPI PUSH1 0x80 PUSH17 0x10002C5CC37DA9491D0985C348C68E7B3 DUP3 MUL SWAP1 SHR SWAP1 POP JUMPDEST PUSH1 0x0 PUSH7 0x2000000000000 DUP5 AND PUSH1 0xF SIGNEXTEND SGT ISZERO PUSH2 0x247D JUMPI PUSH1 0x80 PUSH17 0x1000162E525EE054754457D5995292026 DUP3 MUL SWAP1 SHR SWAP1 POP JUMPDEST PUSH1 0x0 PUSH7 0x1000000000000 DUP5 AND PUSH1 0xF SIGNEXTEND SGT ISZERO PUSH2 0x24AD JUMPI PUSH1 0x80 PUSH17 0x10000B17255775C040618BF4A4ADE83FC DUP3 MUL SWAP1 SHR SWAP1 POP JUMPDEST PUSH1 0x0 PUSH6 0x800000000000 DUP5 AND PUSH1 0xF SIGNEXTEND SGT ISZERO PUSH2 0x24DC JUMPI PUSH1 0x80 PUSH17 0x1000058B91B5BC9AE2EED81E9B7D4CFAB DUP3 MUL SWAP1 SHR SWAP1 POP JUMPDEST PUSH1 0x0 PUSH6 0x400000000000 DUP5 AND PUSH1 0xF SIGNEXTEND SGT ISZERO PUSH2 0x250B JUMPI PUSH1 0x80 PUSH17 0x100002C5C89D5EC6CA4D7C8ACC017B7C9 DUP3 MUL SWAP1 SHR SWAP1 POP JUMPDEST PUSH1 0x0 PUSH6 0x200000000000 DUP5 AND PUSH1 0xF SIGNEXTEND SGT ISZERO PUSH2 0x253A JUMPI PUSH1 0x80 PUSH17 0x10000162E43F4F831060E02D839A9D16D DUP3 MUL SWAP1 SHR SWAP1 POP JUMPDEST PUSH1 0x0 PUSH6 0x100000000000 DUP5 AND PUSH1 0xF SIGNEXTEND SGT ISZERO PUSH2 0x2569 JUMPI PUSH1 0x80 PUSH17 0x100000B1721BCFC99D9F890EA06911763 DUP3 MUL SWAP1 SHR SWAP1 POP JUMPDEST PUSH1 0x0 PUSH6 0x80000000000 DUP5 AND PUSH1 0xF SIGNEXTEND SGT ISZERO PUSH2 0x2598 JUMPI PUSH1 0x80 PUSH17 0x10000058B90CF1E6D97F9CA14DBCC1628 DUP3 MUL SWAP1 SHR SWAP1 POP JUMPDEST PUSH1 0x0 PUSH6 0x40000000000 DUP5 AND PUSH1 0xF SIGNEXTEND SGT ISZERO PUSH2 0x25C7 JUMPI PUSH1 0x80 PUSH17 0x1000002C5C863B73F016468F6BAC5CA2B DUP3 MUL SWAP1 SHR SWAP1 POP JUMPDEST PUSH1 0x0 PUSH6 0x20000000000 DUP5 AND PUSH1 0xF SIGNEXTEND SGT ISZERO PUSH2 0x25F6 JUMPI PUSH1 0x80 PUSH17 0x100000162E430E5A18F6119E3C02282A5 DUP3 MUL SWAP1 SHR SWAP1 POP JUMPDEST PUSH1 0x0 PUSH6 0x10000000000 DUP5 AND PUSH1 0xF SIGNEXTEND SGT ISZERO PUSH2 0x2625 JUMPI PUSH1 0x80 PUSH17 0x1000000B1721835514B86E6D96EFD1BFE DUP3 MUL SWAP1 SHR SWAP1 POP JUMPDEST PUSH1 0x0 PUSH5 0x8000000000 DUP5 AND PUSH1 0xF SIGNEXTEND SGT ISZERO PUSH2 0x2653 JUMPI PUSH1 0x80 PUSH17 0x100000058B90C0B48C6BE5DF846C5B2EF DUP3 MUL SWAP1 SHR SWAP1 POP JUMPDEST PUSH1 0x0 PUSH5 0x4000000000 DUP5 AND PUSH1 0xF SIGNEXTEND SGT ISZERO PUSH2 0x2681 JUMPI PUSH1 0x80 PUSH17 0x10000002C5C8601CC6B9E94213C72737A DUP3 MUL SWAP1 SHR SWAP1 POP JUMPDEST PUSH1 0x0 PUSH5 0x2000000000 DUP5 AND PUSH1 0xF SIGNEXTEND SGT ISZERO PUSH2 0x26AF JUMPI PUSH1 0x80 PUSH17 0x1000000162E42FFF037DF38AA2B219F06 DUP3 MUL SWAP1 SHR SWAP1 POP JUMPDEST PUSH1 0x0 PUSH5 0x1000000000 DUP5 AND PUSH1 0xF SIGNEXTEND SGT ISZERO PUSH2 0x26DD JUMPI PUSH1 0x80 PUSH17 0x10000000B17217FBA9C739AA5819F44F9 DUP3 MUL SWAP1 SHR SWAP1 POP JUMPDEST PUSH1 0x0 PUSH5 0x800000000 DUP5 AND PUSH1 0xF SIGNEXTEND SGT ISZERO PUSH2 0x270B JUMPI PUSH1 0x80 PUSH17 0x1000000058B90BFCDEE5ACD3C1CEDC823 DUP3 MUL SWAP1 SHR SWAP1 POP JUMPDEST PUSH1 0x0 PUSH5 0x400000000 DUP5 AND PUSH1 0xF SIGNEXTEND SGT ISZERO PUSH2 0x2739 JUMPI PUSH1 0x80 PUSH17 0x100000002C5C85FE31F35A6A30DA1BE50 DUP3 MUL SWAP1 SHR SWAP1 POP JUMPDEST PUSH1 0x0 PUSH5 0x200000000 DUP5 AND PUSH1 0xF SIGNEXTEND SGT ISZERO PUSH2 0x2767 JUMPI PUSH1 0x80 PUSH17 0x10000000162E42FF0999CE3541B9FFFCF DUP3 MUL SWAP1 SHR SWAP1 POP JUMPDEST PUSH1 0x0 PUSH5 0x100000000 DUP5 AND PUSH1 0xF SIGNEXTEND SGT ISZERO PUSH2 0x2795 JUMPI PUSH1 0x80 PUSH17 0x100000000B17217F80F4EF5AADDA45554 DUP3 MUL SWAP1 SHR SWAP1 POP JUMPDEST PUSH1 0x0 PUSH4 0x80000000 DUP5 AND PUSH1 0xF SIGNEXTEND SGT ISZERO PUSH2 0x27C2 JUMPI PUSH1 0x80 PUSH17 0x10000000058B90BFBF8479BD5A81B51AD DUP3 MUL SWAP1 SHR SWAP1 POP JUMPDEST PUSH1 0x0 PUSH4 0x40000000 DUP5 AND PUSH1 0xF SIGNEXTEND SGT ISZERO PUSH2 0x27EF JUMPI PUSH1 0x80 PUSH17 0x1000000002C5C85FDF84BD62AE30A74CC DUP3 MUL SWAP1 SHR SWAP1 POP JUMPDEST PUSH1 0x0 PUSH4 0x20000000 DUP5 AND PUSH1 0xF SIGNEXTEND SGT ISZERO PUSH2 0x281C JUMPI PUSH1 0x80 PUSH17 0x100000000162E42FEFB2FED257559BDAA DUP3 MUL SWAP1 SHR SWAP1 POP JUMPDEST PUSH1 0x0 PUSH4 0x10000000 DUP5 AND PUSH1 0xF SIGNEXTEND SGT ISZERO PUSH2 0x2849 JUMPI PUSH1 0x80 PUSH17 0x1000000000B17217F7D5A7716BBA4A9AE DUP3 MUL SWAP1 SHR SWAP1 POP JUMPDEST PUSH1 0x0 PUSH4 0x8000000 DUP5 AND PUSH1 0xF SIGNEXTEND SGT ISZERO PUSH2 0x2876 JUMPI PUSH1 0x80 PUSH17 0x100000000058B90BFBE9DDBAC5E109CCE DUP3 MUL SWAP1 SHR SWAP1 POP JUMPDEST PUSH1 0x0 PUSH4 0x4000000 DUP5 AND PUSH1 0xF SIGNEXTEND SGT ISZERO PUSH2 0x28A3 JUMPI PUSH1 0x80 PUSH17 0x10000000002C5C85FDF4B15DE6F17EB0D DUP3 MUL SWAP1 SHR SWAP1 POP JUMPDEST PUSH1 0x0 PUSH4 0x2000000 DUP5 AND PUSH1 0xF SIGNEXTEND SGT ISZERO PUSH2 0x28D0 JUMPI PUSH1 0x80 PUSH17 0x1000000000162E42FEFA494F1478FDE05 DUP3 MUL SWAP1 SHR SWAP1 POP JUMPDEST PUSH1 0x0 PUSH4 0x1000000 DUP5 AND PUSH1 0xF SIGNEXTEND SGT ISZERO PUSH2 0x28FD JUMPI PUSH1 0x80 PUSH17 0x10000000000B17217F7D20CF927C8E94C DUP3 MUL SWAP1 SHR SWAP1 POP JUMPDEST PUSH1 0x0 PUSH3 0x800000 DUP5 AND PUSH1 0xF SIGNEXTEND SGT ISZERO PUSH2 0x2929 JUMPI PUSH1 0x80 PUSH17 0x1000000000058B90BFBE8F71CB4E4B33D DUP3 MUL SWAP1 SHR SWAP1 POP JUMPDEST PUSH1 0x0 PUSH3 0x400000 DUP5 AND PUSH1 0xF SIGNEXTEND SGT ISZERO PUSH2 0x2955 JUMPI PUSH1 0x80 PUSH17 0x100000000002C5C85FDF477B662B26945 DUP3 MUL SWAP1 SHR SWAP1 POP JUMPDEST PUSH1 0x0 PUSH3 0x200000 DUP5 AND PUSH1 0xF SIGNEXTEND SGT ISZERO PUSH2 0x2981 JUMPI PUSH1 0x80 PUSH17 0x10000000000162E42FEFA3AE53369388C DUP3 MUL SWAP1 SHR SWAP1 POP JUMPDEST PUSH1 0x0 PUSH3 0x100000 DUP5 AND PUSH1 0xF SIGNEXTEND SGT ISZERO PUSH2 0x29AD JUMPI PUSH1 0x80 PUSH17 0x100000000000B17217F7D1D351A389D40 DUP3 MUL SWAP1 SHR SWAP1 POP JUMPDEST PUSH1 0x0 PUSH3 0x80000 DUP5 AND PUSH1 0xF SIGNEXTEND SGT ISZERO PUSH2 0x29D9 JUMPI PUSH1 0x80 PUSH17 0x10000000000058B90BFBE8E8B2D3D4EDE DUP3 MUL SWAP1 SHR SWAP1 POP JUMPDEST PUSH1 0x0 PUSH3 0x40000 DUP5 AND PUSH1 0xF SIGNEXTEND SGT ISZERO PUSH2 0x2A05 JUMPI PUSH1 0x80 PUSH17 0x1000000000002C5C85FDF4741BEA6E77E DUP3 MUL SWAP1 SHR SWAP1 POP JUMPDEST PUSH1 0x0 PUSH3 0x20000 DUP5 AND PUSH1 0xF SIGNEXTEND SGT ISZERO PUSH2 0x2A31 JUMPI PUSH1 0x80 PUSH17 0x100000000000162E42FEFA39FE95583C2 DUP3 MUL SWAP1 SHR SWAP1 POP JUMPDEST PUSH1 0x0 PUSH3 0x10000 DUP5 AND PUSH1 0xF SIGNEXTEND SGT ISZERO PUSH2 0x2A5D JUMPI PUSH1 0x80 PUSH17 0x1000000000000B17217F7D1CFB72B45E1 DUP3 MUL SWAP1 SHR SWAP1 POP JUMPDEST PUSH1 0x0 PUSH2 0x8000 DUP5 AND PUSH1 0xF SIGNEXTEND SGT ISZERO PUSH2 0x2A88 JUMPI PUSH1 0x80 PUSH17 0x100000000000058B90BFBE8E7CC35C3F0 DUP3 MUL SWAP1 SHR SWAP1 POP JUMPDEST PUSH1 0x0 PUSH2 0x4000 DUP5 AND PUSH1 0xF SIGNEXTEND SGT ISZERO PUSH2 0x2AB3 JUMPI PUSH1 0x80 PUSH17 0x10000000000002C5C85FDF473E242EA38 DUP3 MUL SWAP1 SHR SWAP1 POP JUMPDEST PUSH1 0x0 PUSH2 0x2000 DUP5 AND PUSH1 0xF SIGNEXTEND SGT ISZERO PUSH2 0x2ADE JUMPI PUSH1 0x80 PUSH17 0x1000000000000162E42FEFA39F02B772C DUP3 MUL SWAP1 SHR SWAP1 POP JUMPDEST PUSH1 0x0 PUSH2 0x1000 DUP5 AND PUSH1 0xF SIGNEXTEND SGT ISZERO PUSH2 0x2B09 JUMPI PUSH1 0x80 PUSH17 0x10000000000000B17217F7D1CF7D83C1A DUP3 MUL SWAP1 SHR SWAP1 POP JUMPDEST PUSH1 0x0 PUSH2 0x800 DUP5 AND PUSH1 0xF SIGNEXTEND SGT ISZERO PUSH2 0x2B34 JUMPI PUSH1 0x80 PUSH17 0x1000000000000058B90BFBE8E7BDCBE2E DUP3 MUL SWAP1 SHR SWAP1 POP JUMPDEST PUSH1 0x0 PUSH2 0x400 DUP5 AND PUSH1 0xF SIGNEXTEND SGT ISZERO PUSH2 0x2B5F JUMPI PUSH1 0x80 PUSH17 0x100000000000002C5C85FDF473DEA871F DUP3 MUL SWAP1 SHR SWAP1 POP JUMPDEST PUSH1 0x0 PUSH2 0x200 DUP5 AND PUSH1 0xF SIGNEXTEND SGT ISZERO PUSH2 0x2B8A JUMPI PUSH1 0x80 PUSH17 0x10000000000000162E42FEFA39EF44D91 DUP3 MUL SWAP1 SHR SWAP1 POP JUMPDEST PUSH1 0x0 PUSH2 0x100 DUP5 AND PUSH1 0xF SIGNEXTEND SGT ISZERO PUSH2 0x2BB5 JUMPI PUSH1 0x80 PUSH17 0x100000000000000B17217F7D1CF79E949 DUP3 MUL SWAP1 SHR SWAP1 POP JUMPDEST PUSH1 0x0 PUSH1 0x80 DUP5 AND PUSH1 0xF SIGNEXTEND SGT ISZERO PUSH2 0x2BDF JUMPI PUSH1 0x80 PUSH17 0x10000000000000058B90BFBE8E7BCE544 DUP3 MUL SWAP1 SHR SWAP1 POP JUMPDEST PUSH1 0x0 PUSH1 0x40 DUP5 AND PUSH1 0xF SIGNEXTEND SGT ISZERO PUSH2 0x2C09 JUMPI PUSH1 0x80 PUSH17 0x1000000000000002C5C85FDF473DE6ECA DUP3 MUL SWAP1 SHR SWAP1 POP JUMPDEST PUSH1 0x0 PUSH1 0x20 DUP5 AND PUSH1 0xF SIGNEXTEND SGT ISZERO PUSH2 0x2C33 JUMPI PUSH1 0x80 PUSH17 0x100000000000000162E42FEFA39EF366F DUP3 MUL SWAP1 SHR SWAP1 POP JUMPDEST PUSH1 0x0 PUSH1 0x10 DUP5 AND PUSH1 0xF SIGNEXTEND SGT ISZERO PUSH2 0x2C5D JUMPI PUSH1 0x80 PUSH17 0x1000000000000000B17217F7D1CF79AFA DUP3 MUL SWAP1 SHR SWAP1 POP JUMPDEST PUSH1 0x0 PUSH1 0x8 DUP5 AND PUSH1 0xF SIGNEXTEND SGT ISZERO PUSH2 0x2C87 JUMPI PUSH1 0x80 PUSH17 0x100000000000000058B90BFBE8E7BCD6D DUP3 MUL SWAP1 SHR SWAP1 POP JUMPDEST PUSH1 0x0 PUSH1 0x4 DUP5 AND PUSH1 0xF SIGNEXTEND SGT ISZERO PUSH2 0x2CB1 JUMPI PUSH1 0x80 PUSH17 0x10000000000000002C5C85FDF473DE6B2 DUP3 MUL SWAP1 SHR SWAP1 POP JUMPDEST PUSH1 0x0 PUSH1 0x2 DUP5 AND PUSH1 0xF SIGNEXTEND SGT ISZERO PUSH2 0x2CDB JUMPI PUSH1 0x80 PUSH17 0x1000000000000000162E42FEFA39EF358 DUP3 MUL SWAP1 SHR SWAP1 POP JUMPDEST PUSH1 0x0 PUSH1 0x1 DUP5 AND PUSH1 0xF SIGNEXTEND SGT ISZERO PUSH2 0x2D05 JUMPI PUSH1 0x80 PUSH17 0x10000000000000000B17217F7D1CF79AB DUP3 MUL SWAP1 SHR SWAP1 POP JUMPDEST PUSH1 0x40 DUP4 PUSH1 0xF SIGNEXTEND SWAP1 SAR PUSH1 0x3F SUB PUSH1 0xF SIGNEXTEND DUP2 SWAP1 SHR SWAP1 POP PUSH16 0x7FFFFFFFFFFFFFFFFFFFFFFFFFFFFFFF PUSH1 0xF SIGNEXTEND DUP2 GT ISZERO PUSH2 0x2D38 JUMPI PUSH1 0x0 DUP1 REVERT JUMPDEST DUP1 SWAP2 POP POP JUMPDEST SWAP2 SWAP1 POP JUMP INVALID LOG2 PUSH5 0x6970667358 0x22 SLT KECCAK256 DUP9 0xCA 0x2C SWAP7 0xE1 PUSH27 0x42501C02C35EFA80C437B97654F409E31A76E7BBB2481BDA8E764 PUSH20 0x6F6C634300070400330000000000000000000000 "
		},
		"gasEstimates": {
			"creation": {
				"codeDepositCost": "2328000",
				"executionCost": "infinite",
				"totalCost": "infinite"
			},
			"external": {
				"appealTimestamp()": "1094",
				"buyshares(uint8,int128)": "infinite",
				"claimReward()": "71822",
				"cost()": "infinite",
				"costafterbuy(uint8,int128)": "infinite",
				"disputeOutcome()": "infinite",
				"endTimestamp()": "1094",
				"fu(uint256)": "453",
				"getBalanceOf(uint8,address)": "1477",
				"getOutcome()": "1150",
				"kleros()": "1158",
				"numOfOutcomes()": "1090",
				"outstandingShares(uint8)": "1332",
				"price(uint8,int128)": "infinite",
				"resultTimestamp()": "1027",
				"rule(uint256,uint256)": "69209",
				"setOutcome(uint8)": "67587",
				"status()": "1185",
				"totalShares()": "1154",
				"tu(int128)": "504"
			}
		},
		"methodIdentifiers": {
			"appealTimestamp()": "4f09d6b5",
			"buyshares(uint8,int128)": "653b599b",
			"claimReward()": "b88a802f",
			"cost()": "13faede6",
			"costafterbuy(uint8,int128)": "adfa9009",
			"disputeOutcome()": "b77641ad",
			"endTimestamp()": "a85adeab",
			"fu(uint256)": "4ea12b62",
			"getBalanceOf(uint8,address)": "fd8c8219",
			"getOutcome()": "7e7e4b47",
			"kleros()": "5a920320",
			"numOfOutcomes()": "14444772",
			"outstandingShares(uint8)": "288b212f",
			"price(uint8,int128)": "8bb9e448",
			"resultTimestamp()": "b2d05711",
			"rule(uint256,uint256)": "311a6c56",
			"setOutcome(uint8)": "36ea431e",
			"status()": "200d2ed2",
			"totalShares()": "3a98ef39",
			"tu(int128)": "d23890e9"
		}
	},
	"abi": [
		{
			"inputs": [
				{
					"internalType": "uint8",
					"name": "_numOptions",
					"type": "uint8"
				},
				{
					"internalType": "uint256",
					"name": "endTime",
					"type": "uint256"
				},
				{
					"internalType": "uint256",
					"name": "resultTime",
					"type": "uint256"
				},
				{
					"internalType": "string",
					"name": "hash",
					"type": "string"
				}
			],
			"stateMutability": "nonpayable",
			"type": "constructor"
		},
		{
			"anonymous": false,
			"inputs": [
				{
					"indexed": true,
					"internalType": "contract IArbitrator",
					"name": "_arbitrator",
					"type": "address"
				},
				{
					"indexed": true,
					"internalType": "uint256",
					"name": "_disputeID",
					"type": "uint256"
				},
				{
					"indexed": false,
					"internalType": "uint256",
					"name": "_metaEvidenceID",
					"type": "uint256"
				},
				{
					"indexed": false,
					"internalType": "uint256",
					"name": "_evidenceGroupID",
					"type": "uint256"
				}
			],
			"name": "Dispute",
			"type": "event"
		},
		{
			"anonymous": false,
			"inputs": [
				{
					"indexed": true,
					"internalType": "contract IArbitrator",
					"name": "_arbitrator",
					"type": "address"
				},
				{
					"indexed": true,
					"internalType": "uint256",
					"name": "_evidenceGroupID",
					"type": "uint256"
				},
				{
					"indexed": true,
					"internalType": "address",
					"name": "_party",
					"type": "address"
				},
				{
					"indexed": false,
					"internalType": "string",
					"name": "_evidence",
					"type": "string"
				}
			],
			"name": "Evidence",
			"type": "event"
		},
		{
			"anonymous": false,
			"inputs": [
				{
					"indexed": true,
					"internalType": "uint256",
					"name": "_metaEvidenceID",
					"type": "uint256"
				},
				{
					"indexed": false,
					"internalType": "string",
					"name": "_evidence",
					"type": "string"
				}
			],
			"name": "MetaEvidence",
			"type": "event"
		},
		{
			"anonymous": false,
			"inputs": [
				{
					"indexed": true,
					"internalType": "contract IArbitrator",
					"name": "_arbitrator",
					"type": "address"
				},
				{
					"indexed": true,
					"internalType": "uint256",
					"name": "_disputeID",
					"type": "uint256"
				},
				{
					"indexed": false,
					"internalType": "uint256",
					"name": "_ruling",
					"type": "uint256"
				}
			],
			"name": "Ruling",
			"type": "event"
		},
		{
			"inputs": [],
			"name": "appealTimestamp",
			"outputs": [
				{
					"internalType": "uint256",
					"name": "",
					"type": "uint256"
				}
			],
			"stateMutability": "view",
			"type": "function"
		},
		{
			"inputs": [
				{
					"internalType": "uint8",
					"name": "_outcome",
					"type": "uint8"
				},
				{
					"internalType": "int128",
					"name": "amount",
					"type": "int128"
				}
			],
			"name": "buyshares",
			"outputs": [
				{
					"internalType": "int128",
					"name": "spot_price",
					"type": "int128"
				}
			],
			"stateMutability": "nonpayable",
			"type": "function"
		},
		{
			"inputs": [],
			"name": "claimReward",
			"outputs": [
				{
					"internalType": "uint256",
					"name": "",
					"type": "uint256"
				}
			],
			"stateMutability": "nonpayable",
			"type": "function"
		},
		{
			"inputs": [],
			"name": "cost",
			"outputs": [
				{
					"internalType": "int128",
					"name": "",
					"type": "int128"
				}
			],
			"stateMutability": "view",
			"type": "function"
		},
		{
			"inputs": [
				{
					"internalType": "uint8",
					"name": "_outcome",
					"type": "uint8"
				},
				{
					"internalType": "int128",
					"name": "amount",
					"type": "int128"
				}
			],
			"name": "costafterbuy",
			"outputs": [
				{
					"internalType": "int128",
					"name": "",
					"type": "int128"
				}
			],
			"stateMutability": "view",
			"type": "function"
		},
		{
			"inputs": [],
			"name": "disputeOutcome",
			"outputs": [],
			"stateMutability": "payable",
			"type": "function"
		},
		{
			"inputs": [],
			"name": "endTimestamp",
			"outputs": [
				{
					"internalType": "uint256",
					"name": "",
					"type": "uint256"
				}
			],
			"stateMutability": "view",
			"type": "function"
		},
		{
			"inputs": [
				{
					"internalType": "uint256",
					"name": "x",
					"type": "uint256"
				}
			],
			"name": "fu",
			"outputs": [
				{
					"internalType": "int128",
					"name": "",
					"type": "int128"
				}
			],
			"stateMutability": "pure",
			"type": "function"
		},
		{
			"inputs": [
				{
					"internalType": "uint8",
					"name": "_outcome",
					"type": "uint8"
				},
				{
					"internalType": "address",
					"name": "_acc",
					"type": "address"
				}
			],
			"name": "getBalanceOf",
			"outputs": [
				{
					"internalType": "int128",
					"name": "",
					"type": "int128"
				}
			],
			"stateMutability": "view",
			"type": "function"
		},
		{
			"inputs": [],
			"name": "getOutcome",
			"outputs": [
				{
					"internalType": "uint8",
					"name": "",
					"type": "uint8"
				}
			],
			"stateMutability": "view",
			"type": "function"
		},
		{
			"inputs": [],
			"name": "kleros",
			"outputs": [
				{
					"internalType": "contract IArbitrator",
					"name": "",
					"type": "address"
				}
			],
			"stateMutability": "view",
			"type": "function"
		},
		{
			"inputs": [],
			"name": "numOfOutcomes",
			"outputs": [
				{
					"internalType": "uint8",
					"name": "",
					"type": "uint8"
				}
			],
			"stateMutability": "view",
			"type": "function"
		},
		{
			"inputs": [
				{
					"internalType": "uint8",
					"name": "_outcome",
					"type": "uint8"
				}
			],
			"name": "outstandingShares",
			"outputs": [
				{
					"internalType": "int128",
					"name": "",
					"type": "int128"
				}
			],
			"stateMutability": "view",
			"type": "function"
		},
		{
			"inputs": [
				{
					"internalType": "uint8",
					"name": "_outcome",
					"type": "uint8"
				},
				{
					"internalType": "int128",
					"name": "amount",
					"type": "int128"
				}
			],
			"name": "price",
			"outputs": [
				{
					"internalType": "uint256",
					"name": "",
					"type": "uint256"
				}
			],
			"stateMutability": "view",
			"type": "function"
		},
		{
			"inputs": [],
			"name": "resultTimestamp",
			"outputs": [
				{
					"internalType": "uint256",
					"name": "",
					"type": "uint256"
				}
			],
			"stateMutability": "view",
			"type": "function"
		},
		{
			"inputs": [
				{
					"internalType": "uint256",
					"name": "_disputeID",
					"type": "uint256"
				},
				{
					"internalType": "uint256",
					"name": "_ruling",
					"type": "uint256"
				}
			],
			"name": "rule",
			"outputs": [],
			"stateMutability": "nonpayable",
			"type": "function"
		},
		{
			"inputs": [
				{
					"internalType": "uint8",
					"name": "_outcome",
					"type": "uint8"
				}
			],
			"name": "setOutcome",
			"outputs": [],
			"stateMutability": "nonpayable",
			"type": "function"
		},
		{
			"inputs": [],
			"name": "status",
			"outputs": [
				{
					"internalType": "enum SCMMaker.Status",
					"name": "",
					"type": "uint8"
				}
			],
			"stateMutability": "view",
			"type": "function"
		},
		{
			"inputs": [],
			"name": "totalShares",
			"outputs": [
				{
					"internalType": "int128",
					"name": "",
					"type": "int128"
				}
			],
			"stateMutability": "view",
			"type": "function"
		},
		{
			"inputs": [
				{
					"internalType": "int128",
					"name": "x",
					"type": "int128"
				}
			],
			"name": "tu",
			"outputs": [
				{
					"internalType": "uint256",
					"name": "",
					"type": "uint256"
				}
			],
			"stateMutability": "pure",
			"type": "function"
		}
	]
}